{
  "contractName": "LipToken",
  "abi": [
    {
      "inputs": [
        {
          "internalType": "string",
          "name": "_name",
          "type": "string"
        },
        {
          "internalType": "string",
          "name": "_symbol",
          "type": "string"
        }
      ],
      "stateMutability": "nonpayable",
      "type": "constructor"
    },
    {
      "anonymous": false,
      "inputs": [
        {
          "indexed": true,
          "internalType": "address",
          "name": "owner",
          "type": "address"
        },
        {
          "indexed": true,
          "internalType": "address",
          "name": "approved",
          "type": "address"
        },
        {
          "indexed": true,
          "internalType": "uint256",
          "name": "tokenId",
          "type": "uint256"
        }
      ],
      "name": "Approval",
      "type": "event"
    },
    {
      "anonymous": false,
      "inputs": [
        {
          "indexed": true,
          "internalType": "address",
          "name": "owner",
          "type": "address"
        },
        {
          "indexed": true,
          "internalType": "address",
          "name": "operator",
          "type": "address"
        },
        {
          "indexed": false,
          "internalType": "bool",
          "name": "approved",
          "type": "bool"
        }
      ],
      "name": "ApprovalForAll",
      "type": "event"
    },
    {
      "anonymous": false,
      "inputs": [
        {
          "indexed": true,
          "internalType": "address",
          "name": "owner",
          "type": "address"
        },
        {
          "indexed": false,
          "internalType": "uint256",
          "name": "id",
          "type": "uint256"
        },
        {
          "indexed": false,
          "internalType": "uint256",
          "name": "dna",
          "type": "uint256"
        }
      ],
      "name": "NewLip",
      "type": "event"
    },
    {
      "anonymous": false,
      "inputs": [
        {
          "indexed": true,
          "internalType": "address",
          "name": "previousOwner",
          "type": "address"
        },
        {
          "indexed": true,
          "internalType": "address",
          "name": "newOwner",
          "type": "address"
        }
      ],
      "name": "OwnershipTransferred",
      "type": "event"
    },
    {
      "anonymous": false,
      "inputs": [
        {
          "indexed": true,
          "internalType": "address",
          "name": "from",
          "type": "address"
        },
        {
          "indexed": true,
          "internalType": "address",
          "name": "to",
          "type": "address"
        },
        {
          "indexed": true,
          "internalType": "uint256",
          "name": "tokenId",
          "type": "uint256"
        }
      ],
      "name": "Transfer",
      "type": "event"
    },
    {
      "inputs": [
        {
          "internalType": "address",
          "name": "to",
          "type": "address"
        },
        {
          "internalType": "uint256",
          "name": "tokenId",
          "type": "uint256"
        }
      ],
      "name": "approve",
      "outputs": [],
      "stateMutability": "nonpayable",
      "type": "function"
    },
    {
      "inputs": [
        {
          "internalType": "address",
          "name": "owner",
          "type": "address"
        }
      ],
      "name": "balanceOf",
      "outputs": [
        {
          "internalType": "uint256",
          "name": "",
          "type": "uint256"
        }
      ],
      "stateMutability": "view",
      "type": "function",
      "constant": true
    },
    {
      "inputs": [
        {
          "internalType": "uint256",
          "name": "tokenId",
          "type": "uint256"
        }
      ],
      "name": "getApproved",
      "outputs": [
        {
          "internalType": "address",
          "name": "",
          "type": "address"
        }
      ],
      "stateMutability": "view",
      "type": "function",
      "constant": true
    },
    {
      "inputs": [
        {
          "internalType": "address",
          "name": "owner",
          "type": "address"
        },
        {
          "internalType": "address",
          "name": "operator",
          "type": "address"
        }
      ],
      "name": "isApprovedForAll",
      "outputs": [
        {
          "internalType": "bool",
          "name": "",
          "type": "bool"
        }
      ],
      "stateMutability": "view",
      "type": "function",
      "constant": true
    },
    {
      "inputs": [
        {
          "internalType": "uint256",
          "name": "",
          "type": "uint256"
        }
      ],
      "name": "lips",
      "outputs": [
        {
          "internalType": "string",
          "name": "name",
          "type": "string"
        },
        {
          "internalType": "uint256",
          "name": "id",
          "type": "uint256"
        },
        {
          "internalType": "uint256",
          "name": "dna",
          "type": "uint256"
        },
        {
          "internalType": "uint8",
          "name": "level",
          "type": "uint8"
        },
        {
          "internalType": "uint8",
          "name": "rarity",
          "type": "uint8"
        }
      ],
      "stateMutability": "view",
      "type": "function",
      "constant": true
    },
    {
      "inputs": [],
      "name": "name",
      "outputs": [
        {
          "internalType": "string",
          "name": "",
          "type": "string"
        }
      ],
      "stateMutability": "view",
      "type": "function",
      "constant": true
    },
    {
      "inputs": [],
      "name": "owner",
      "outputs": [
        {
          "internalType": "address",
          "name": "",
          "type": "address"
        }
      ],
      "stateMutability": "view",
      "type": "function",
      "constant": true
    },
    {
      "inputs": [
        {
          "internalType": "uint256",
          "name": "tokenId",
          "type": "uint256"
        }
      ],
      "name": "ownerOf",
      "outputs": [
        {
          "internalType": "address",
          "name": "",
          "type": "address"
        }
      ],
      "stateMutability": "view",
      "type": "function",
      "constant": true
    },
    {
      "inputs": [],
      "name": "renounceOwnership",
      "outputs": [],
      "stateMutability": "nonpayable",
      "type": "function"
    },
    {
      "inputs": [
        {
          "internalType": "address",
          "name": "from",
          "type": "address"
        },
        {
          "internalType": "address",
          "name": "to",
          "type": "address"
        },
        {
          "internalType": "uint256",
          "name": "tokenId",
          "type": "uint256"
        }
      ],
      "name": "safeTransferFrom",
      "outputs": [],
      "stateMutability": "nonpayable",
      "type": "function"
    },
    {
      "inputs": [
        {
          "internalType": "address",
          "name": "from",
          "type": "address"
        },
        {
          "internalType": "address",
          "name": "to",
          "type": "address"
        },
        {
          "internalType": "uint256",
          "name": "tokenId",
          "type": "uint256"
        },
        {
          "internalType": "bytes",
          "name": "_data",
          "type": "bytes"
        }
      ],
      "name": "safeTransferFrom",
      "outputs": [],
      "stateMutability": "nonpayable",
      "type": "function"
    },
    {
      "inputs": [
        {
          "internalType": "address",
          "name": "operator",
          "type": "address"
        },
        {
          "internalType": "bool",
          "name": "approved",
          "type": "bool"
        }
      ],
      "name": "setApprovalForAll",
      "outputs": [],
      "stateMutability": "nonpayable",
      "type": "function"
    },
    {
      "inputs": [
        {
          "internalType": "bytes4",
          "name": "interfaceId",
          "type": "bytes4"
        }
      ],
      "name": "supportsInterface",
      "outputs": [
        {
          "internalType": "bool",
          "name": "",
          "type": "bool"
        }
      ],
      "stateMutability": "view",
      "type": "function",
      "constant": true
    },
    {
      "inputs": [],
      "name": "symbol",
      "outputs": [
        {
          "internalType": "string",
          "name": "",
          "type": "string"
        }
      ],
      "stateMutability": "view",
      "type": "function",
      "constant": true
    },
    {
      "inputs": [
        {
          "internalType": "uint256",
          "name": "tokenId",
          "type": "uint256"
        }
      ],
      "name": "tokenURI",
      "outputs": [
        {
          "internalType": "string",
          "name": "",
          "type": "string"
        }
      ],
      "stateMutability": "view",
      "type": "function",
      "constant": true
    },
    {
      "inputs": [
        {
          "internalType": "address",
          "name": "from",
          "type": "address"
        },
        {
          "internalType": "address",
          "name": "to",
          "type": "address"
        },
        {
          "internalType": "uint256",
          "name": "tokenId",
          "type": "uint256"
        }
      ],
      "name": "transferFrom",
      "outputs": [],
      "stateMutability": "nonpayable",
      "type": "function"
    },
    {
      "inputs": [
        {
          "internalType": "address",
          "name": "newOwner",
          "type": "address"
        }
      ],
      "name": "transferOwnership",
      "outputs": [],
      "stateMutability": "nonpayable",
      "type": "function"
    },
    {
      "inputs": [
        {
          "internalType": "uint256",
          "name": "_fee",
          "type": "uint256"
        }
      ],
      "name": "updateFee",
      "outputs": [],
      "stateMutability": "nonpayable",
      "type": "function"
    },
    {
      "inputs": [],
      "name": "withdraw",
      "outputs": [],
      "stateMutability": "payable",
      "type": "function",
      "payable": true
    },
    {
      "inputs": [
        {
          "internalType": "string",
          "name": "_name",
          "type": "string"
        }
      ],
      "name": "createRandomLip",
      "outputs": [],
      "stateMutability": "payable",
      "type": "function",
      "payable": true
    },
    {
      "inputs": [],
      "name": "getLips",
      "outputs": [
        {
          "components": [
            {
              "internalType": "string",
              "name": "name",
              "type": "string"
            },
            {
              "internalType": "uint256",
              "name": "id",
              "type": "uint256"
            },
            {
              "internalType": "uint256",
              "name": "dna",
              "type": "uint256"
            },
            {
              "internalType": "uint8",
              "name": "level",
              "type": "uint8"
            },
            {
              "internalType": "uint8",
              "name": "rarity",
              "type": "uint8"
            }
          ],
          "internalType": "struct LipToken.Lip[]",
          "name": "",
          "type": "tuple[]"
        }
      ],
      "stateMutability": "view",
      "type": "function",
      "constant": true
    },
    {
      "inputs": [
        {
          "internalType": "address",
          "name": "_owner",
          "type": "address"
        }
      ],
      "name": "getOwnerLips",
      "outputs": [
        {
          "components": [
            {
              "internalType": "string",
              "name": "name",
              "type": "string"
            },
            {
              "internalType": "uint256",
              "name": "id",
              "type": "uint256"
            },
            {
              "internalType": "uint256",
              "name": "dna",
              "type": "uint256"
            },
            {
              "internalType": "uint8",
              "name": "level",
              "type": "uint8"
            },
            {
              "internalType": "uint8",
              "name": "rarity",
              "type": "uint8"
            }
          ],
          "internalType": "struct LipToken.Lip[]",
          "name": "",
          "type": "tuple[]"
        }
      ],
      "stateMutability": "view",
      "type": "function",
      "constant": true
    }
  ],
  "bytecode": "0x6080604052662386f26fc100006008553480156200001c57600080fd5b5060405162002344380380620023448339810160408190526200003f91620001a6565b818160006200004f83826200029f565b5060016200005e82826200029f565b5050506200007b620000756200008360201b60201c565b62000087565b50506200036b565b3390565b600680546001600160a01b038381166001600160a01b0319831681179093556040519116919082907f8be0079c531659141344cd1fd0a4f28419497f9722a3daafe3b4186f6b6457e090600090a35050565b634e487b7160e01b600052604160045260246000fd5b600082601f8301126200010157600080fd5b81516001600160401b03808211156200011e576200011e620000d9565b604051601f8301601f19908116603f01168101908282118183101715620001495762000149620000d9565b816040528381526020925086838588010111156200016657600080fd5b600091505b838210156200018a57858201830151818301840152908201906200016b565b838211156200019c5760008385830101525b9695505050505050565b60008060408385031215620001ba57600080fd5b82516001600160401b0380821115620001d257600080fd5b620001e086838701620000ef565b93506020850151915080821115620001f757600080fd5b506200020685828601620000ef565b9150509250929050565b600181811c908216806200022557607f821691505b6020821081036200024657634e487b7160e01b600052602260045260246000fd5b50919050565b601f8211156200029a57600081815260208120601f850160051c81016020861015620002755750805b601f850160051c820191505b81811015620002965782815560010162000281565b5050505b505050565b81516001600160401b03811115620002bb57620002bb620000d9565b620002d381620002cc845462000210565b846200024c565b602080601f8311600181146200030b5760008415620002f25750858301515b600019600386901b1c1916600185901b17855562000296565b600085815260208120601f198616915b828110156200033c578886015182559484019460019091019084016200031b565b50858210156200035b5787850151600019600388901b60f8161c191681555b5050505050600190811b01905550565b611fc9806200037b6000396000f3fe6080604052600436106101355760003560e01c8063715018a6116100ab57806395d89b411161006f57806395d89b411461035a578063a22cb4651461036f578063b88d4fde1461038f578063c87b56dd146103af578063e985e9c5146103cf578063f2fde38b1461041857600080fd5b8063715018a6146102c557806383b5daf7146102da5780638c0b9c54146102fc5780638da5cb5b1461031c5780639012c4a81461033a57600080fd5b80633ccfd60b116100fd5780633ccfd60b1461020b57806342842e0e146102135780635ec163db146102335780636352211e14610264578063698d640c1461028457806370a082311461029757600080fd5b806301ffc9a71461013a57806306fdde031461016f578063081812fc14610191578063095ea7b3146101c957806323b872dd146101eb575b600080fd5b34801561014657600080fd5b5061015a610155366004611862565b610438565b60405190151581526020015b60405180910390f35b34801561017b57600080fd5b5061018461048a565b60405161016691906118d7565b34801561019d57600080fd5b506101b16101ac3660046118ea565b61051c565b6040516001600160a01b039091168152602001610166565b3480156101d557600080fd5b506101e96101e436600461191f565b6105b6565b005b3480156101f757600080fd5b506101e9610206366004611949565b6106cb565b6101e96106fc565b34801561021f57600080fd5b506101e961022e366004611949565b610776565b34801561023f57600080fd5b5061025361024e3660046118ea565b610791565b604051610166959493929190611985565b34801561027057600080fd5b506101b161027f3660046118ea565b610867565b6101e9610292366004611a4b565b6108de565b3480156102a357600080fd5b506102b76102b2366004611a94565b6108f9565b604051908152602001610166565b3480156102d157600080fd5b506101e9610980565b3480156102e657600080fd5b506102ef6109b6565b6040516101669190611aaf565b34801561030857600080fd5b506102ef610317366004611a94565b610adc565b34801561032857600080fd5b506006546001600160a01b03166101b1565b34801561034657600080fd5b506101e96103553660046118ea565b610cd3565b34801561036657600080fd5b50610184610d02565b34801561037b57600080fd5b506101e961038a366004611b4d565b610d11565b34801561039b57600080fd5b506101e96103aa366004611b89565b610d1c565b3480156103bb57600080fd5b506101846103ca3660046118ea565b610d54565b3480156103db57600080fd5b5061015a6103ea366004611c05565b6001600160a01b03918216600090815260056020908152604080832093909416825291909152205460ff1690565b34801561042457600080fd5b506101e9610433366004611a94565b610e3c565b60006001600160e01b031982166380ac58cd60e01b148061046957506001600160e01b03198216635b5e139f60e01b145b8061048457506301ffc9a760e01b6001600160e01b03198316145b92915050565b60606000805461049990611c38565b80601f01602080910402602001604051908101604052809291908181526020018280546104c590611c38565b80156105125780601f106104e757610100808354040283529160200191610512565b820191906000526020600020905b8154815290600101906020018083116104f557829003601f168201915b5050505050905090565b6000818152600260205260408120546001600160a01b031661059a5760405162461bcd60e51b815260206004820152602c60248201527f4552433732313a20617070726f76656420717565727920666f72206e6f6e657860448201526b34b9ba32b73a103a37b5b2b760a11b60648201526084015b60405180910390fd5b506000908152600460205260409020546001600160a01b031690565b60006105c182610867565b9050806001600160a01b0316836001600160a01b03160361062e5760405162461bcd60e51b815260206004820152602160248201527f4552433732313a20617070726f76616c20746f2063757272656e74206f776e656044820152603960f91b6064820152608401610591565b336001600160a01b038216148061064a575061064a81336103ea565b6106bc5760405162461bcd60e51b815260206004820152603860248201527f4552433732313a20617070726f76652063616c6c6572206973206e6f74206f7760448201527f6e6572206e6f7220617070726f76656420666f7220616c6c00000000000000006064820152608401610591565b6106c68383610ed4565b505050565b6106d53382610f42565b6106f15760405162461bcd60e51b815260040161059190611c72565b6106c6838383611039565b6006546001600160a01b031633146107265760405162461bcd60e51b815260040161059190611cc3565b600061073a6006546001600160a01b031690565b6040519091506001600160a01b038216904780156108fc02916000818181858888f19350505050158015610772573d6000803e3d6000fd5b5050565b6106c683838360405180602001604052806000815250610d1c565b600981815481106107a157600080fd5b90600052602060002090600402016000915090508060000180546107c490611c38565b80601f01602080910402602001604051908101604052809291908181526020018280546107f090611c38565b801561083d5780601f106108125761010080835404028352916020019161083d565b820191906000526020600020905b81548152906001019060200180831161082057829003601f168201915b50505050600183015460028401546003909401549293909290915060ff8082169161010090041685565b6000818152600260205260408120546001600160a01b0316806104845760405162461bcd60e51b815260206004820152602960248201527f4552433732313a206f776e657220717565727920666f72206e6f6e657869737460448201526832b73a103a37b5b2b760b91b6064820152608401610591565b6008543410156108ed57600080fd5b6108f6816111d5565b50565b60006001600160a01b0382166109645760405162461bcd60e51b815260206004820152602a60248201527f4552433732313a2062616c616e636520717565727920666f7220746865207a65604482015269726f206164647265737360b01b6064820152608401610591565b506001600160a01b031660009081526003602052604090205490565b6006546001600160a01b031633146109aa5760405162461bcd60e51b815260040161059190611cc3565b6109b46000611313565b565b60606009805480602002602001604051908101604052809291908181526020016000905b82821015610ad357838290600052602060002090600402016040518060a0016040529081600082018054610a0d90611c38565b80601f0160208091040260200160405190810160405280929190818152602001828054610a3990611c38565b8015610a865780601f10610a5b57610100808354040283529160200191610a86565b820191906000526020600020905b815481529060010190602001808311610a6957829003601f168201915b50505091835250506001828101546020808401919091526002840154604084015260039093015460ff808216606085015261010090910416608090920191909152918352920191016109da565b50505050905090565b60606000610ae9836108f9565b67ffffffffffffffff811115610b0157610b016119bf565b604051908082528060200260200182016040528015610b6a57816020015b610b576040518060a00160405280606081526020016000815260200160008152602001600060ff168152602001600060ff1681525090565b815260200190600190039081610b1f5790505b5090506000805b600954811015610cca57846001600160a01b0316610b8e82610867565b6001600160a01b031603610cb85760098181548110610baf57610baf611cf8565b90600052602060002090600402016040518060a0016040529081600082018054610bd890611c38565b80601f0160208091040260200160405190810160405280929190818152602001828054610c0490611c38565b8015610c515780601f10610c2657610100808354040283529160200191610c51565b820191906000526020600020905b815481529060010190602001808311610c3457829003601f168201915b5050509183525050600182015460208201526002820154604082015260039091015460ff8082166060840152610100909104166080909101528351849084908110610c9e57610c9e611cf8565b60200260200101819052508180610cb490611d24565b9250505b80610cc281611d24565b915050610b71565b50909392505050565b6006546001600160a01b03163314610cfd5760405162461bcd60e51b815260040161059190611cc3565b600855565b60606001805461049990611c38565b610772338383611365565b610d263383610f42565b610d425760405162461bcd60e51b815260040161059190611c72565b610d4e84848484611433565b50505050565b6000818152600260205260409020546060906001600160a01b0316610dd35760405162461bcd60e51b815260206004820152602f60248201527f4552433732314d657461646174613a2055524920717565727920666f72206e6f60448201526e3732bc34b9ba32b73a103a37b5b2b760891b6064820152608401610591565b6000610dea60408051602081019091526000815290565b90506000815111610e0a5760405180602001604052806000815250610e35565b80610e1484611466565b604051602001610e25929190611d3d565b6040516020818303038152906040525b9392505050565b6006546001600160a01b03163314610e665760405162461bcd60e51b815260040161059190611cc3565b6001600160a01b038116610ecb5760405162461bcd60e51b815260206004820152602660248201527f4f776e61626c653a206e6577206f776e657220697320746865207a65726f206160448201526564647265737360d01b6064820152608401610591565b6108f681611313565b600081815260046020526040902080546001600160a01b0319166001600160a01b0384169081179091558190610f0982610867565b6001600160a01b03167f8c5be1e5ebec7d5bd14f71427d1e84f3dd0314c0f7b2291e5b200ac8c7c3b92560405160405180910390a45050565b6000818152600260205260408120546001600160a01b0316610fbb5760405162461bcd60e51b815260206004820152602c60248201527f4552433732313a206f70657261746f7220717565727920666f72206e6f6e657860448201526b34b9ba32b73a103a37b5b2b760a11b6064820152608401610591565b6000610fc683610867565b9050806001600160a01b0316846001600160a01b0316148061100d57506001600160a01b0380821660009081526005602090815260408083209388168352929052205460ff165b806110315750836001600160a01b03166110268461051c565b6001600160a01b0316145b949350505050565b826001600160a01b031661104c82610867565b6001600160a01b0316146110b05760405162461bcd60e51b815260206004820152602560248201527f4552433732313a207472616e736665722066726f6d20696e636f72726563742060448201526437bbb732b960d91b6064820152608401610591565b6001600160a01b0382166111125760405162461bcd60e51b8152602060048201526024808201527f4552433732313a207472616e7366657220746f20746865207a65726f206164646044820152637265737360e01b6064820152608401610591565b61111d600082610ed4565b6001600160a01b0383166000908152600360205260408120805460019290611146908490611d6c565b90915550506001600160a01b0382166000908152600360205260408120805460019290611174908490611d83565b909155505060008181526002602052604080822080546001600160a01b0319166001600160a01b0386811691821790925591518493918716917fddf252ad1be2c89b69c2b068fc378daa952ba7f163c4a11628f55a4df523b3ef91a4505050565b60006111e16064611567565b905060006111f5662386f26fc10000611567565b6040805160a081018252858152600754602082015290810182905260016060820181905260ff851660808301526009805491820181556000528151929350909182916004027f6e1540171b6c0c960b71a7020d9f60077f6af931a8bbf590da0223dacf75c7af019081906112699082611de9565b50602082015160018201556040820151600282015560608201516003909101805460809093015160ff9081166101000261ffff199094169216919091179190911790556007546112ba9033906115bc565b600754604080519182526020820184905233917f24d2d558f98bdd9d21339e119fc0b03e213c7d05affd838ac2ee136d90e3bbeb910160405180910390a26007805490600061130883611d24565b919050555050505050565b600680546001600160a01b038381166001600160a01b0319831681179093556040519116919082907f8be0079c531659141344cd1fd0a4f28419497f9722a3daafe3b4186f6b6457e090600090a35050565b816001600160a01b0316836001600160a01b0316036113c65760405162461bcd60e51b815260206004820152601960248201527f4552433732313a20617070726f766520746f2063616c6c6572000000000000006044820152606401610591565b6001600160a01b03838116600081815260056020908152604080832094871680845294825291829020805460ff191686151590811790915591519182527f17307eab39ab6107e8899845ad3d59bd9653f200f220920489ca2b5937696c31910160405180910390a3505050565b61143e848484611039565b61144a848484846115d6565b610d4e5760405162461bcd60e51b815260040161059190611ea9565b60608160000361148d5750506040805180820190915260018152600360fc1b602082015290565b8160005b81156114b757806114a181611d24565b91506114b09050600a83611f11565b9150611491565b60008167ffffffffffffffff8111156114d2576114d26119bf565b6040519080825280601f01601f1916602001820160405280156114fc576020820181803683370190505b5090505b841561103157611511600183611d6c565b915061151e600a86611f25565b611529906030611d83565b60f81b81838151811061153e5761153e611cf8565b60200101906001600160f81b031916908160001a905350611560600a86611f11565b9450611500565b600080423360405160200161159892919091825260601b6bffffffffffffffffffffffff1916602082015260340190565b60408051601f1981840301815291905280516020909101209050610e358382611f25565b6107728282604051806020016040528060008152506116d7565b60006001600160a01b0384163b156116cc57604051630a85bd0160e11b81526001600160a01b0385169063150b7a029061161a903390899088908890600401611f39565b6020604051808303816000875af1925050508015611655575060408051601f3d908101601f1916820190925261165291810190611f76565b60015b6116b2573d808015611683576040519150601f19603f3d011682016040523d82523d6000602084013e611688565b606091505b5080516000036116aa5760405162461bcd60e51b815260040161059190611ea9565b805181602001fd5b6001600160e01b031916630a85bd0160e11b149050611031565b506001949350505050565b6116e1838361170a565b6116ee60008484846115d6565b6106c65760405162461bcd60e51b815260040161059190611ea9565b6001600160a01b0382166117605760405162461bcd60e51b815260206004820181905260248201527f4552433732313a206d696e7420746f20746865207a65726f20616464726573736044820152606401610591565b6000818152600260205260409020546001600160a01b0316156117c55760405162461bcd60e51b815260206004820152601c60248201527f4552433732313a20746f6b656e20616c7265616479206d696e746564000000006044820152606401610591565b6001600160a01b03821660009081526003602052604081208054600192906117ee908490611d83565b909155505060008181526002602052604080822080546001600160a01b0319166001600160a01b03861690811790915590518392907fddf252ad1be2c89b69c2b068fc378daa952ba7f163c4a11628f55a4df523b3ef908290a45050565b6001600160e01b0319811681146108f657600080fd5b60006020828403121561187457600080fd5b8135610e358161184c565b60005b8381101561189a578181015183820152602001611882565b83811115610d4e5750506000910152565b600081518084526118c381602086016020860161187f565b601f01601f19169290920160200192915050565b602081526000610e3560208301846118ab565b6000602082840312156118fc57600080fd5b5035919050565b80356001600160a01b038116811461191a57600080fd5b919050565b6000806040838503121561193257600080fd5b61193b83611903565b946020939093013593505050565b60008060006060848603121561195e57600080fd5b61196784611903565b925061197560208501611903565b9150604084013590509250925092565b60a08152600061199860a08301886118ab565b602083019690965250604081019390935260ff918216606084015216608090910152919050565b634e487b7160e01b600052604160045260246000fd5b600067ffffffffffffffff808411156119f0576119f06119bf565b604051601f8501601f19908116603f01168101908282118183101715611a1857611a186119bf565b81604052809350858152868686011115611a3157600080fd5b858560208301376000602087830101525050509392505050565b600060208284031215611a5d57600080fd5b813567ffffffffffffffff811115611a7457600080fd5b8201601f81018413611a8557600080fd5b611031848235602084016119d5565b600060208284031215611aa657600080fd5b610e3582611903565b60006020808301818452808551808352604092508286019150828160051b87010184880160005b83811015611b3f57603f19898403018552815160a08151818652611afc828701826118ab565b838b0151878c0152898401518a88015260608085015160ff9081169189019190915260809485015116939096019290925250509386019390860190600101611ad6565b509098975050505050505050565b60008060408385031215611b6057600080fd5b611b6983611903565b915060208301358015158114611b7e57600080fd5b809150509250929050565b60008060008060808587031215611b9f57600080fd5b611ba885611903565b9350611bb660208601611903565b925060408501359150606085013567ffffffffffffffff811115611bd957600080fd5b8501601f81018713611bea57600080fd5b611bf9878235602084016119d5565b91505092959194509250565b60008060408385031215611c1857600080fd5b611c2183611903565b9150611c2f60208401611903565b90509250929050565b600181811c90821680611c4c57607f821691505b602082108103611c6c57634e487b7160e01b600052602260045260246000fd5b50919050565b60208082526031908201527f4552433732313a207472616e736665722063616c6c6572206973206e6f74206f6040820152701ddb995c881b9bdc88185c1c1c9bdd9959607a1b606082015260800190565b6020808252818101527f4f776e61626c653a2063616c6c6572206973206e6f7420746865206f776e6572604082015260600190565b634e487b7160e01b600052603260045260246000fd5b634e487b7160e01b600052601160045260246000fd5b600060018201611d3657611d36611d0e565b5060010190565b60008351611d4f81846020880161187f565b835190830190611d6381836020880161187f565b01949350505050565b600082821015611d7e57611d7e611d0e565b500390565b60008219821115611d9657611d96611d0e565b500190565b601f8211156106c657600081815260208120601f850160051c81016020861015611dc25750805b601f850160051c820191505b81811015611de157828155600101611dce565b505050505050565b815167ffffffffffffffff811115611e0357611e036119bf565b611e1781611e118454611c38565b84611d9b565b602080601f831160018114611e4c5760008415611e345750858301515b600019600386901b1c1916600185901b178555611de1565b600085815260208120601f198616915b82811015611e7b57888601518255948401946001909101908401611e5c565b5085821015611e995787850151600019600388901b60f8161c191681555b5050505050600190811b01905550565b60208082526032908201527f4552433732313a207472616e7366657220746f206e6f6e20455243373231526560408201527131b2b4bb32b91034b6b83632b6b2b73a32b960711b606082015260800190565b634e487b7160e01b600052601260045260246000fd5b600082611f2057611f20611efb565b500490565b600082611f3457611f34611efb565b500690565b6001600160a01b0385811682528416602082015260408101839052608060608201819052600090611f6c908301846118ab565b9695505050505050565b600060208284031215611f8857600080fd5b8151610e358161184c56fea2646970667358221220b441beb19d222f574d519ddd339323e7995589d879ba6a0924c782e4aee831a164736f6c634300080f0033",
  "immutableReferences": {},
  "source": "// SPDX-License-Identifier: MIT\r\npragma solidity ^0.8.0;\r\n\r\nimport \"@openzeppelin/contracts/token/ERC721/ERC721.sol\";\r\nimport \"@openzeppelin/contracts/access/Ownable.sol\";\r\n\r\ncontract LipToken is ERC721, Ownable {\r\n\r\n    constructor(string memory _name, string memory _symbol)\r\n        ERC721(_name, _symbol)\r\n    {}\r\n\r\n    uint256 COUNTER;\r\n\r\n    uint256 fee = 0.01 ether;\r\n\r\n    struct Lip {\r\n      string name;\r\n      uint256 id;\r\n      uint256 dna; // generate images like CryptoKitties\r\n      uint8 level;\r\n      uint8 rarity;\r\n    }\r\n\r\n    Lip[] public lips;\r\n\r\n    event NewLip(address indexed owner, uint256 id, uint256 dna);\r\n\r\n    function _createLip(string memory _name) internal {\r\n      uint8 randRarity = uint8(_createRandomNum(100));\r\n      uint256 randDna = _createRandomNum(10**16);\r\n      Lip memory newLip = Lip(_name, COUNTER, randDna, 1, randRarity);\r\n      lips.push(newLip);\r\n      _safeMint(msg.sender, COUNTER);\r\n      emit NewLip(msg.sender, COUNTER, randDna);\r\n      COUNTER++;\r\n    }\r\n\r\n    function _createRandomNum(uint256 _mod) internal view returns (uint256) {\r\n      uint256 randomNum = uint256(\r\n        keccak256(abi.encodePacked(block.timestamp, msg.sender))\r\n      );\r\n      return randomNum % _mod;\r\n    }\r\n\r\n    function updateFee(uint256 _fee) external onlyOwner {\r\n      fee = _fee;\r\n    }\r\n\r\n    function withdraw() external payable onlyOwner {\r\n      address payable _owner = payable(owner());\r\n      _owner.transfer(address(this).balance);\r\n    }\r\n\r\n    function createRandomLip(string memory _name) public payable {\r\n      require(msg.value >= fee);\r\n      _createLip(_name);\r\n    }\r\n    \r\n    function getLips() public view returns (Lip[] memory) {\r\n      return lips;\r\n    }\r\n\r\n    function getOwnerLips(address _owner) public view returns (Lip[] memory) {\r\n    Lip[] memory result = new Lip[](balanceOf(_owner));\r\n    uint256 counter = 0;\r\n    for (uint256 i = 0; i < lips.length; i++) {\r\n      if (ownerOf(i) == _owner) {\r\n        result[counter] = lips[i];\r\n        counter++;\r\n      }\r\n    }\r\n    return result;\r\n  }\r\n}",
  "sourcePath": "C:\\Users\\anhkh\\Desktop\\Dev\\cnm-nft-game\\contracts\\LipToken.sol",
  "compiler": {
    "name": "solc",
    "version": "0.8.15+commit.e14f2714.Emscripten.clang"
  },
  "schemaVersion": "3.4.7",
  "updatedAt": "2022-06-29T07:22:10.997Z",
  "networkType": "ethereum",
  "devdoc": {
    "kind": "dev",
    "methods": {
      "approve(address,uint256)": {
        "details": "See {IERC721-approve}."
      },
      "balanceOf(address)": {
        "details": "See {IERC721-balanceOf}."
      },
      "getApproved(uint256)": {
        "details": "See {IERC721-getApproved}."
      },
      "isApprovedForAll(address,address)": {
        "details": "See {IERC721-isApprovedForAll}."
      },
      "name()": {
        "details": "See {IERC721Metadata-name}."
      },
      "owner()": {
        "details": "Returns the address of the current owner."
      },
      "ownerOf(uint256)": {
        "details": "See {IERC721-ownerOf}."
      },
      "renounceOwnership()": {
        "details": "Leaves the contract without owner. It will not be possible to call `onlyOwner` functions anymore. Can only be called by the current owner. NOTE: Renouncing ownership will leave the contract without an owner, thereby removing any functionality that is only available to the owner."
      },
      "safeTransferFrom(address,address,uint256)": {
        "details": "See {IERC721-safeTransferFrom}."
      },
      "safeTransferFrom(address,address,uint256,bytes)": {
        "details": "See {IERC721-safeTransferFrom}."
      },
      "setApprovalForAll(address,bool)": {
        "details": "See {IERC721-setApprovalForAll}."
      },
      "supportsInterface(bytes4)": {
        "details": "See {IERC165-supportsInterface}."
      },
      "symbol()": {
        "details": "See {IERC721Metadata-symbol}."
      },
      "tokenURI(uint256)": {
        "details": "See {IERC721Metadata-tokenURI}."
      },
      "transferFrom(address,address,uint256)": {
        "details": "See {IERC721-transferFrom}."
      },
      "transferOwnership(address)": {
        "details": "Transfers ownership of the contract to a new account (`newOwner`). Can only be called by the current owner."
      }
    },
    "version": 1
  },
  "userdoc": {
    "kind": "user",
    "methods": {},
    "version": 1
  }
}