{
  "contractName": "LipToken",
  "abi": [
    {
      "inputs": [
        {
          "internalType": "string",
          "name": "_name",
          "type": "string"
        },
        {
          "internalType": "string",
          "name": "_symbol",
          "type": "string"
        }
      ],
      "stateMutability": "nonpayable",
      "type": "constructor"
    },
    {
      "anonymous": false,
      "inputs": [
        {
          "indexed": true,
          "internalType": "address",
          "name": "owner",
          "type": "address"
        },
        {
          "indexed": true,
          "internalType": "address",
          "name": "approved",
          "type": "address"
        },
        {
          "indexed": true,
          "internalType": "uint256",
          "name": "tokenId",
          "type": "uint256"
        }
      ],
      "name": "Approval",
      "type": "event"
    },
    {
      "anonymous": false,
      "inputs": [
        {
          "indexed": true,
          "internalType": "address",
          "name": "owner",
          "type": "address"
        },
        {
          "indexed": true,
          "internalType": "address",
          "name": "operator",
          "type": "address"
        },
        {
          "indexed": false,
          "internalType": "bool",
          "name": "approved",
          "type": "bool"
        }
      ],
      "name": "ApprovalForAll",
      "type": "event"
    },
    {
      "anonymous": false,
      "inputs": [
        {
          "indexed": true,
          "internalType": "address",
          "name": "owner",
          "type": "address"
        },
        {
          "indexed": false,
          "internalType": "uint256",
          "name": "id",
          "type": "uint256"
        },
        {
          "indexed": false,
          "internalType": "uint256",
          "name": "dna",
          "type": "uint256"
        }
      ],
      "name": "NewLip",
      "type": "event"
    },
    {
      "anonymous": false,
      "inputs": [
        {
          "indexed": true,
          "internalType": "address",
          "name": "previousOwner",
          "type": "address"
        },
        {
          "indexed": true,
          "internalType": "address",
          "name": "newOwner",
          "type": "address"
        }
      ],
      "name": "OwnershipTransferred",
      "type": "event"
    },
    {
      "anonymous": false,
      "inputs": [
        {
          "indexed": true,
          "internalType": "address",
          "name": "from",
          "type": "address"
        },
        {
          "indexed": true,
          "internalType": "address",
          "name": "to",
          "type": "address"
        },
        {
          "indexed": true,
          "internalType": "uint256",
          "name": "tokenId",
          "type": "uint256"
        }
      ],
      "name": "Transfer",
      "type": "event"
    },
    {
      "inputs": [
        {
          "internalType": "address",
          "name": "to",
          "type": "address"
        },
        {
          "internalType": "uint256",
          "name": "tokenId",
          "type": "uint256"
        }
      ],
      "name": "approve",
      "outputs": [],
      "stateMutability": "nonpayable",
      "type": "function"
    },
    {
      "inputs": [
        {
          "internalType": "address",
          "name": "owner",
          "type": "address"
        }
      ],
      "name": "balanceOf",
      "outputs": [
        {
          "internalType": "uint256",
          "name": "",
          "type": "uint256"
        }
      ],
      "stateMutability": "view",
      "type": "function",
      "constant": true
    },
    {
      "inputs": [
        {
          "internalType": "uint256",
          "name": "tokenId",
          "type": "uint256"
        }
      ],
      "name": "getApproved",
      "outputs": [
        {
          "internalType": "address",
          "name": "",
          "type": "address"
        }
      ],
      "stateMutability": "view",
      "type": "function",
      "constant": true
    },
    {
      "inputs": [
        {
          "internalType": "address",
          "name": "owner",
          "type": "address"
        },
        {
          "internalType": "address",
          "name": "operator",
          "type": "address"
        }
      ],
      "name": "isApprovedForAll",
      "outputs": [
        {
          "internalType": "bool",
          "name": "",
          "type": "bool"
        }
      ],
      "stateMutability": "view",
      "type": "function",
      "constant": true
    },
    {
      "inputs": [
        {
          "internalType": "uint256",
          "name": "",
          "type": "uint256"
        }
      ],
      "name": "lips",
      "outputs": [
        {
          "internalType": "string",
          "name": "name",
          "type": "string"
        },
        {
          "internalType": "uint256",
          "name": "id",
          "type": "uint256"
        },
        {
          "internalType": "uint256",
          "name": "dna",
          "type": "uint256"
        },
        {
          "internalType": "uint8",
          "name": "level",
          "type": "uint8"
        },
        {
          "internalType": "uint8",
          "name": "rarity",
          "type": "uint8"
        },
        {
          "internalType": "bool",
          "name": "isKissed",
          "type": "bool"
        }
      ],
      "stateMutability": "view",
      "type": "function",
      "constant": true
    },
    {
      "inputs": [],
      "name": "name",
      "outputs": [
        {
          "internalType": "string",
          "name": "",
          "type": "string"
        }
      ],
      "stateMutability": "view",
      "type": "function",
      "constant": true
    },
    {
      "inputs": [],
      "name": "owner",
      "outputs": [
        {
          "internalType": "address",
          "name": "",
          "type": "address"
        }
      ],
      "stateMutability": "view",
      "type": "function",
      "constant": true
    },
    {
      "inputs": [
        {
          "internalType": "uint256",
          "name": "tokenId",
          "type": "uint256"
        }
      ],
      "name": "ownerOf",
      "outputs": [
        {
          "internalType": "address",
          "name": "",
          "type": "address"
        }
      ],
      "stateMutability": "view",
      "type": "function",
      "constant": true
    },
    {
      "inputs": [],
      "name": "renounceOwnership",
      "outputs": [],
      "stateMutability": "nonpayable",
      "type": "function"
    },
    {
      "inputs": [
        {
          "internalType": "address",
          "name": "from",
          "type": "address"
        },
        {
          "internalType": "address",
          "name": "to",
          "type": "address"
        },
        {
          "internalType": "uint256",
          "name": "tokenId",
          "type": "uint256"
        }
      ],
      "name": "safeTransferFrom",
      "outputs": [],
      "stateMutability": "nonpayable",
      "type": "function"
    },
    {
      "inputs": [
        {
          "internalType": "address",
          "name": "from",
          "type": "address"
        },
        {
          "internalType": "address",
          "name": "to",
          "type": "address"
        },
        {
          "internalType": "uint256",
          "name": "tokenId",
          "type": "uint256"
        },
        {
          "internalType": "bytes",
          "name": "_data",
          "type": "bytes"
        }
      ],
      "name": "safeTransferFrom",
      "outputs": [],
      "stateMutability": "nonpayable",
      "type": "function"
    },
    {
      "inputs": [
        {
          "internalType": "address",
          "name": "operator",
          "type": "address"
        },
        {
          "internalType": "bool",
          "name": "approved",
          "type": "bool"
        }
      ],
      "name": "setApprovalForAll",
      "outputs": [],
      "stateMutability": "nonpayable",
      "type": "function"
    },
    {
      "inputs": [
        {
          "internalType": "bytes4",
          "name": "interfaceId",
          "type": "bytes4"
        }
      ],
      "name": "supportsInterface",
      "outputs": [
        {
          "internalType": "bool",
          "name": "",
          "type": "bool"
        }
      ],
      "stateMutability": "view",
      "type": "function",
      "constant": true
    },
    {
      "inputs": [],
      "name": "symbol",
      "outputs": [
        {
          "internalType": "string",
          "name": "",
          "type": "string"
        }
      ],
      "stateMutability": "view",
      "type": "function",
      "constant": true
    },
    {
      "inputs": [
        {
          "internalType": "uint256",
          "name": "tokenId",
          "type": "uint256"
        }
      ],
      "name": "tokenURI",
      "outputs": [
        {
          "internalType": "string",
          "name": "",
          "type": "string"
        }
      ],
      "stateMutability": "view",
      "type": "function",
      "constant": true
    },
    {
      "inputs": [
        {
          "internalType": "address",
          "name": "from",
          "type": "address"
        },
        {
          "internalType": "address",
          "name": "to",
          "type": "address"
        },
        {
          "internalType": "uint256",
          "name": "tokenId",
          "type": "uint256"
        }
      ],
      "name": "transferFrom",
      "outputs": [],
      "stateMutability": "nonpayable",
      "type": "function"
    },
    {
      "inputs": [
        {
          "internalType": "address",
          "name": "newOwner",
          "type": "address"
        }
      ],
      "name": "transferOwnership",
      "outputs": [],
      "stateMutability": "nonpayable",
      "type": "function"
    },
    {
      "inputs": [
        {
          "internalType": "uint256",
          "name": "_fee",
          "type": "uint256"
        }
      ],
      "name": "updateFee",
      "outputs": [],
      "stateMutability": "nonpayable",
      "type": "function"
    },
    {
      "inputs": [],
      "name": "withdraw",
      "outputs": [],
      "stateMutability": "payable",
      "type": "function",
      "payable": true
    },
    {
      "inputs": [
        {
          "internalType": "string",
          "name": "_name",
          "type": "string"
        }
      ],
      "name": "createRandomLip",
      "outputs": [],
      "stateMutability": "payable",
      "type": "function",
      "payable": true
    },
    {
      "inputs": [],
      "name": "getLips",
      "outputs": [
        {
          "components": [
            {
              "internalType": "string",
              "name": "name",
              "type": "string"
            },
            {
              "internalType": "uint256",
              "name": "id",
              "type": "uint256"
            },
            {
              "internalType": "uint256",
              "name": "dna",
              "type": "uint256"
            },
            {
              "internalType": "uint8",
              "name": "level",
              "type": "uint8"
            },
            {
              "internalType": "uint8",
              "name": "rarity",
              "type": "uint8"
            },
            {
              "internalType": "bool",
              "name": "isKissed",
              "type": "bool"
            }
          ],
          "internalType": "struct LipToken.Lip[]",
          "name": "",
          "type": "tuple[]"
        }
      ],
      "stateMutability": "view",
      "type": "function",
      "constant": true
    },
    {
      "inputs": [
        {
          "internalType": "address",
          "name": "_owner",
          "type": "address"
        }
      ],
      "name": "getOwnerLips",
      "outputs": [
        {
          "components": [
            {
              "internalType": "string",
              "name": "name",
              "type": "string"
            },
            {
              "internalType": "uint256",
              "name": "id",
              "type": "uint256"
            },
            {
              "internalType": "uint256",
              "name": "dna",
              "type": "uint256"
            },
            {
              "internalType": "uint8",
              "name": "level",
              "type": "uint8"
            },
            {
              "internalType": "uint8",
              "name": "rarity",
              "type": "uint8"
            },
            {
              "internalType": "bool",
              "name": "isKissed",
              "type": "bool"
            }
          ],
          "internalType": "struct LipToken.Lip[]",
          "name": "",
          "type": "tuple[]"
        }
      ],
      "stateMutability": "view",
      "type": "function",
      "constant": true
    },
    {
      "inputs": [
        {
          "internalType": "uint256",
          "name": "_lipId",
          "type": "uint256"
        }
      ],
      "name": "levelUp",
      "outputs": [],
      "stateMutability": "nonpayable",
      "type": "function"
    },
    {
      "inputs": [
        {
          "internalType": "uint256",
          "name": "_firstLipId",
          "type": "uint256"
        },
        {
          "internalType": "uint256",
          "name": "_secondLipId",
          "type": "uint256"
        },
        {
          "internalType": "string",
          "name": "_name",
          "type": "string"
        }
      ],
      "name": "kissTwoLips",
      "outputs": [],
      "stateMutability": "payable",
      "type": "function",
      "payable": true
    }
  ],
  "bytecode": "0x6080604052662386f26fc100006008553480156200001c57600080fd5b50604051620025c1380380620025c18339810160408190526200003f91620001a6565b818160006200004f83826200029f565b5060016200005e82826200029f565b5050506200007b620000756200008360201b60201c565b62000087565b50506200036b565b3390565b600680546001600160a01b038381166001600160a01b0319831681179093556040519116919082907f8be0079c531659141344cd1fd0a4f28419497f9722a3daafe3b4186f6b6457e090600090a35050565b634e487b7160e01b600052604160045260246000fd5b600082601f8301126200010157600080fd5b81516001600160401b03808211156200011e576200011e620000d9565b604051601f8301601f19908116603f01168101908282118183101715620001495762000149620000d9565b816040528381526020925086838588010111156200016657600080fd5b600091505b838210156200018a57858201830151818301840152908201906200016b565b838211156200019c5760008385830101525b9695505050505050565b60008060408385031215620001ba57600080fd5b82516001600160401b0380821115620001d257600080fd5b620001e086838701620000ef565b93506020850151915080821115620001f757600080fd5b506200020685828601620000ef565b9150509250929050565b600181811c908216806200022557607f821691505b6020821081036200024657634e487b7160e01b600052602260045260246000fd5b50919050565b601f8211156200029a57600081815260208120601f850160051c81016020861015620002755750805b601f850160051c820191505b81811015620002965782815560010162000281565b5050505b505050565b81516001600160401b03811115620002bb57620002bb620000d9565b620002d381620002cc845462000210565b846200024c565b602080601f8311600181146200030b5760008415620002f25750858301515b600019600386901b1c1916600185901b17855562000296565b600085815260208120601f198616915b828110156200033c578886015182559484019460019091019084016200031b565b50858210156200035b5787850151600019600388901b60f8161c191681555b5050505050600190811b01905550565b612246806200037b6000396000f3fe60806040526004361061014b5760003560e01c8063715018a6116100b6578063a22cb4651161006f578063a22cb465146103a6578063b88d4fde146103c6578063c87b56dd146103e6578063e713851e14610406578063e985e9c514610419578063f2fde38b1461046257600080fd5b8063715018a6146102fc57806383b5daf7146103115780638c0b9c54146103335780638da5cb5b146103535780639012c4a81461037157806395d89b411461039157600080fd5b80633ccfd60b116101085780633ccfd60b1461024157806342842e0e146102495780635ec163db146102695780636352211e1461029b578063698d640c146102bb57806370a08231146102ce57600080fd5b806301ffc9a71461015057806306fdde0314610185578063081812fc146101a7578063095ea7b3146101df5780630ce90ec21461020157806323b872dd14610221575b600080fd5b34801561015c57600080fd5b5061017061016b366004611a4e565b610482565b60405190151581526020015b60405180910390f35b34801561019157600080fd5b5061019a6104d4565b60405161017c9190611ac3565b3480156101b357600080fd5b506101c76101c2366004611ad6565b610566565b6040516001600160a01b03909116815260200161017c565b3480156101eb57600080fd5b506101ff6101fa366004611b0b565b610600565b005b34801561020d57600080fd5b506101ff61021c366004611ad6565b610715565b34801561022d57600080fd5b506101ff61023c366004611b35565b61078c565b6101ff6107bd565b34801561025557600080fd5b506101ff610264366004611b35565b610837565b34801561027557600080fd5b50610289610284366004611ad6565b610852565b60405161017c96959493929190611b71565b3480156102a757600080fd5b506101c76102b6366004611ad6565b610931565b6101ff6102c9366004611c5f565b6109a8565b3480156102da57600080fd5b506102ee6102e9366004611c94565b6109c3565b60405190815260200161017c565b34801561030857600080fd5b506101ff610a4a565b34801561031d57600080fd5b50610326610a80565b60405161017c9190611caf565b34801561033f57600080fd5b5061032661034e366004611c94565b610bb5565b34801561035f57600080fd5b506006546001600160a01b03166101c7565b34801561037d57600080fd5b506101ff61038c366004611ad6565b610db3565b34801561039d57600080fd5b5061019a610de2565b3480156103b257600080fd5b506101ff6103c1366004611d5b565b610df1565b3480156103d257600080fd5b506101ff6103e1366004611d97565b610dfc565b3480156103f257600080fd5b5061019a610401366004611ad6565b610e34565b6101ff610414366004611e13565b610f1c565b34801561042557600080fd5b50610170610434366004611e63565b6001600160a01b03918216600090815260056020908152604080832093909416825291909152205460ff1690565b34801561046e57600080fd5b506101ff61047d366004611c94565b611008565b60006001600160e01b031982166380ac58cd60e01b14806104b357506001600160e01b03198216635b5e139f60e01b145b806104ce57506301ffc9a760e01b6001600160e01b03198316145b92915050565b6060600080546104e390611e96565b80601f016020809104026020016040519081016040528092919081815260200182805461050f90611e96565b801561055c5780601f106105315761010080835404028352916020019161055c565b820191906000526020600020905b81548152906001019060200180831161053f57829003601f168201915b5050505050905090565b6000818152600260205260408120546001600160a01b03166105e45760405162461bcd60e51b815260206004820152602c60248201527f4552433732313a20617070726f76656420717565727920666f72206e6f6e657860448201526b34b9ba32b73a103a37b5b2b760a11b60648201526084015b60405180910390fd5b506000908152600460205260409020546001600160a01b031690565b600061060b82610931565b9050806001600160a01b0316836001600160a01b0316036106785760405162461bcd60e51b815260206004820152602160248201527f4552433732313a20617070726f76616c20746f2063757272656e74206f776e656044820152603960f91b60648201526084016105db565b336001600160a01b038216148061069457506106948133610434565b6107065760405162461bcd60e51b815260206004820152603860248201527f4552433732313a20617070726f76652063616c6c6572206973206e6f74206f7760448201527f6e6572206e6f7220617070726f76656420666f7220616c6c000000000000000060648201526084016105db565b61071083836110a0565b505050565b3361071f82610931565b6001600160a01b03161461073257600080fd5b60006009828154811061074757610747611ed0565b6000918252602082206003600490920201908101805491935060ff9091169161076f83611efc565b91906101000a81548160ff021916908360ff160217905550505050565b610796338261110e565b6107b25760405162461bcd60e51b81526004016105db90611f1b565b610710838383611205565b6006546001600160a01b031633146107e75760405162461bcd60e51b81526004016105db90611f6c565b60006107fb6006546001600160a01b031690565b6040519091506001600160a01b038216904780156108fc02916000818181858888f19350505050158015610833573d6000803e3d6000fd5b5050565b61071083838360405180602001604052806000815250610dfc565b6009818154811061086257600080fd5b906000526020600020906004020160009150905080600001805461088590611e96565b80601f01602080910402602001604051908101604052809291908181526020018280546108b190611e96565b80156108fe5780601f106108d3576101008083540402835291602001916108fe565b820191906000526020600020905b8154815290600101906020018083116108e157829003601f168201915b505050600184015460028501546003909501549394909390925060ff808216925061010082048116916201000090041686565b6000818152600260205260408120546001600160a01b0316806104ce5760405162461bcd60e51b815260206004820152602960248201527f4552433732313a206f776e657220717565727920666f72206e6f6e657869737460448201526832b73a103a37b5b2b760b91b60648201526084016105db565b6008543410156109b757600080fd5b6109c0816113a1565b50565b60006001600160a01b038216610a2e5760405162461bcd60e51b815260206004820152602a60248201527f4552433732313a2062616c616e636520717565727920666f7220746865207a65604482015269726f206164647265737360b01b60648201526084016105db565b506001600160a01b031660009081526003602052604090205490565b6006546001600160a01b03163314610a745760405162461bcd60e51b81526004016105db90611f6c565b610a7e60006114ff565b565b60606009805480602002602001604051908101604052809291908181526020016000905b82821015610bac57838290600052602060002090600402016040518060c0016040529081600082018054610ad790611e96565b80601f0160208091040260200160405190810160405280929190818152602001828054610b0390611e96565b8015610b505780601f10610b2557610100808354040283529160200191610b50565b820191906000526020600020905b815481529060010190602001808311610b3357829003601f168201915b50505091835250506001828101546020808401919091526002840154604084015260039093015460ff80821660608501526101008204811660808501526201000090910416151560a09092019190915291835292019101610aa4565b50505050905090565b60606000610bc2836109c3565b67ffffffffffffffff811115610bda57610bda611bb3565b604051908082528060200260200182016040528015610c3b57816020015b6040805160c0810182526060808252600060208084018290529383018190529082018190526080820181905260a08201528252600019909201910181610bf85790505b5090506000805b600954811015610daa57846001600160a01b0316610c5f82610931565b6001600160a01b031603610d985760098181548110610c8057610c80611ed0565b90600052602060002090600402016040518060c0016040529081600082018054610ca990611e96565b80601f0160208091040260200160405190810160405280929190818152602001828054610cd590611e96565b8015610d225780601f10610cf757610100808354040283529160200191610d22565b820191906000526020600020905b815481529060010190602001808311610d0557829003601f168201915b5050509183525050600182015460208201526002820154604082015260039091015460ff80821660608401526101008204811660808401526201000090910416151560a0909101528351849084908110610d7e57610d7e611ed0565b60200260200101819052508180610d9490611fa1565b9250505b80610da281611fa1565b915050610c42565b50909392505050565b6006546001600160a01b03163314610ddd5760405162461bcd60e51b81526004016105db90611f6c565b600855565b6060600180546104e390611e96565b610833338383611551565b610e06338361110e565b610e225760405162461bcd60e51b81526004016105db90611f1b565b610e2e8484848461161f565b50505050565b6000818152600260205260409020546060906001600160a01b0316610eb35760405162461bcd60e51b815260206004820152602f60248201527f4552433732314d657461646174613a2055524920717565727920666f72206e6f60448201526e3732bc34b9ba32b73a103a37b5b2b760891b60648201526084016105db565b6000610eca60408051602081019091526000815290565b90506000815111610eea5760405180602001604052806000815250610f15565b80610ef484611652565b604051602001610f05929190611fba565b6040516020818303038152906040525b9392505050565b33610f2684610931565b6001600160a01b031614610f3957600080fd5b33610f4383610931565b6001600160a01b031614610f5657600080fd5b600060098481548110610f6b57610f6b611ed0565b90600052602060002090600402019050600060098481548110610f9057610f90611ed0565b906000526020600020906004020190508160030160029054906101000a900460ff1615610fbc57600080fd5b600381015462010000900460ff1615610fd457600080fd5b610fdd836113a1565b600391820180546201000062ff00001991821681179092559190920180549091169091179055505050565b6006546001600160a01b031633146110325760405162461bcd60e51b81526004016105db90611f6c565b6001600160a01b0381166110975760405162461bcd60e51b815260206004820152602660248201527f4f776e61626c653a206e6577206f776e657220697320746865207a65726f206160448201526564647265737360d01b60648201526084016105db565b6109c0816114ff565b600081815260046020526040902080546001600160a01b0319166001600160a01b03841690811790915581906110d582610931565b6001600160a01b03167f8c5be1e5ebec7d5bd14f71427d1e84f3dd0314c0f7b2291e5b200ac8c7c3b92560405160405180910390a45050565b6000818152600260205260408120546001600160a01b03166111875760405162461bcd60e51b815260206004820152602c60248201527f4552433732313a206f70657261746f7220717565727920666f72206e6f6e657860448201526b34b9ba32b73a103a37b5b2b760a11b60648201526084016105db565b600061119283610931565b9050806001600160a01b0316846001600160a01b031614806111d957506001600160a01b0380821660009081526005602090815260408083209388168352929052205460ff165b806111fd5750836001600160a01b03166111f284610566565b6001600160a01b0316145b949350505050565b826001600160a01b031661121882610931565b6001600160a01b03161461127c5760405162461bcd60e51b815260206004820152602560248201527f4552433732313a207472616e736665722066726f6d20696e636f72726563742060448201526437bbb732b960d91b60648201526084016105db565b6001600160a01b0382166112de5760405162461bcd60e51b8152602060048201526024808201527f4552433732313a207472616e7366657220746f20746865207a65726f206164646044820152637265737360e01b60648201526084016105db565b6112e96000826110a0565b6001600160a01b0383166000908152600360205260408120805460019290611312908490611fe9565b90915550506001600160a01b0382166000908152600360205260408120805460019290611340908490612000565b909155505060008181526002602052604080822080546001600160a01b0319166001600160a01b0386811691821790925591518493918716917fddf252ad1be2c89b69c2b068fc378daa952ba7f163c4a11628f55a4df523b3ef91a4505050565b60006113ad6064611753565b905060006113c1662386f26fc10000611753565b6040805160c081018252858152600754602082015290810182905260016060820181905260ff85166080830152600060a0830181905260098054928301815590528151929350909182916004027f6e1540171b6c0c960b71a7020d9f60077f6af931a8bbf590da0223dacf75c7af0190819061143d9082612066565b506020820151600182015560408201516002820155606082015160039091018054608084015160a0909401511515620100000262ff00001960ff9586166101000261ffff19909316959094169490941717919091169190911790556007546114a69033906117a8565b600754604080519182526020820184905233917f24d2d558f98bdd9d21339e119fc0b03e213c7d05affd838ac2ee136d90e3bbeb910160405180910390a2600780549060006114f483611fa1565b919050555050505050565b600680546001600160a01b038381166001600160a01b0319831681179093556040519116919082907f8be0079c531659141344cd1fd0a4f28419497f9722a3daafe3b4186f6b6457e090600090a35050565b816001600160a01b0316836001600160a01b0316036115b25760405162461bcd60e51b815260206004820152601960248201527f4552433732313a20617070726f766520746f2063616c6c65720000000000000060448201526064016105db565b6001600160a01b03838116600081815260056020908152604080832094871680845294825291829020805460ff191686151590811790915591519182527f17307eab39ab6107e8899845ad3d59bd9653f200f220920489ca2b5937696c31910160405180910390a3505050565b61162a848484611205565b611636848484846117c2565b610e2e5760405162461bcd60e51b81526004016105db90612126565b6060816000036116795750506040805180820190915260018152600360fc1b602082015290565b8160005b81156116a3578061168d81611fa1565b915061169c9050600a8361218e565b915061167d565b60008167ffffffffffffffff8111156116be576116be611bb3565b6040519080825280601f01601f1916602001820160405280156116e8576020820181803683370190505b5090505b84156111fd576116fd600183611fe9565b915061170a600a866121a2565b611715906030612000565b60f81b81838151811061172a5761172a611ed0565b60200101906001600160f81b031916908160001a90535061174c600a8661218e565b94506116ec565b600080423360405160200161178492919091825260601b6bffffffffffffffffffffffff1916602082015260340190565b60408051601f1981840301815291905280516020909101209050610f1583826121a2565b6108338282604051806020016040528060008152506118c3565b60006001600160a01b0384163b156118b857604051630a85bd0160e11b81526001600160a01b0385169063150b7a02906118069033908990889088906004016121b6565b6020604051808303816000875af1925050508015611841575060408051601f3d908101601f1916820190925261183e918101906121f3565b60015b61189e573d80801561186f576040519150601f19603f3d011682016040523d82523d6000602084013e611874565b606091505b5080516000036118965760405162461bcd60e51b81526004016105db90612126565b805181602001fd5b6001600160e01b031916630a85bd0160e11b1490506111fd565b506001949350505050565b6118cd83836118f6565b6118da60008484846117c2565b6107105760405162461bcd60e51b81526004016105db90612126565b6001600160a01b03821661194c5760405162461bcd60e51b815260206004820181905260248201527f4552433732313a206d696e7420746f20746865207a65726f206164647265737360448201526064016105db565b6000818152600260205260409020546001600160a01b0316156119b15760405162461bcd60e51b815260206004820152601c60248201527f4552433732313a20746f6b656e20616c7265616479206d696e7465640000000060448201526064016105db565b6001600160a01b03821660009081526003602052604081208054600192906119da908490612000565b909155505060008181526002602052604080822080546001600160a01b0319166001600160a01b03861690811790915590518392907fddf252ad1be2c89b69c2b068fc378daa952ba7f163c4a11628f55a4df523b3ef908290a45050565b6001600160e01b0319811681146109c057600080fd5b600060208284031215611a6057600080fd5b8135610f1581611a38565b60005b83811015611a86578181015183820152602001611a6e565b83811115610e2e5750506000910152565b60008151808452611aaf816020860160208601611a6b565b601f01601f19169290920160200192915050565b602081526000610f156020830184611a97565b600060208284031215611ae857600080fd5b5035919050565b80356001600160a01b0381168114611b0657600080fd5b919050565b60008060408385031215611b1e57600080fd5b611b2783611aef565b946020939093013593505050565b600080600060608486031215611b4a57600080fd5b611b5384611aef565b9250611b6160208501611aef565b9150604084013590509250925092565b60c081526000611b8460c0830189611a97565b602083019790975250604081019490945260ff928316606085015291166080830152151560a090910152919050565b634e487b7160e01b600052604160045260246000fd5b600067ffffffffffffffff80841115611be457611be4611bb3565b604051601f8501601f19908116603f01168101908282118183101715611c0c57611c0c611bb3565b81604052809350858152868686011115611c2557600080fd5b858560208301376000602087830101525050509392505050565b600082601f830112611c5057600080fd5b610f1583833560208501611bc9565b600060208284031215611c7157600080fd5b813567ffffffffffffffff811115611c8857600080fd5b6111fd84828501611c3f565b600060208284031215611ca657600080fd5b610f1582611aef565b60006020808301818452808551808352604092508286019150828160051b87010184880160005b83811015611d4d57603f19898403018552815160c08151818652611cfc82870182611a97565b838b0151878c0152898401518a88015260608085015160ff908116918901919091526080808601519091169088015260a0938401511515939096019290925250509386019390860190600101611cd6565b509098975050505050505050565b60008060408385031215611d6e57600080fd5b611d7783611aef565b915060208301358015158114611d8c57600080fd5b809150509250929050565b60008060008060808587031215611dad57600080fd5b611db685611aef565b9350611dc460208601611aef565b925060408501359150606085013567ffffffffffffffff811115611de757600080fd5b8501601f81018713611df857600080fd5b611e0787823560208401611bc9565b91505092959194509250565b600080600060608486031215611e2857600080fd5b8335925060208401359150604084013567ffffffffffffffff811115611e4d57600080fd5b611e5986828701611c3f565b9150509250925092565b60008060408385031215611e7657600080fd5b611e7f83611aef565b9150611e8d60208401611aef565b90509250929050565b600181811c90821680611eaa57607f821691505b602082108103611eca57634e487b7160e01b600052602260045260246000fd5b50919050565b634e487b7160e01b600052603260045260246000fd5b634e487b7160e01b600052601160045260246000fd5b600060ff821660ff8103611f1257611f12611ee6565b60010192915050565b60208082526031908201527f4552433732313a207472616e736665722063616c6c6572206973206e6f74206f6040820152701ddb995c881b9bdc88185c1c1c9bdd9959607a1b606082015260800190565b6020808252818101527f4f776e61626c653a2063616c6c6572206973206e6f7420746865206f776e6572604082015260600190565b600060018201611fb357611fb3611ee6565b5060010190565b60008351611fcc818460208801611a6b565b835190830190611fe0818360208801611a6b565b01949350505050565b600082821015611ffb57611ffb611ee6565b500390565b6000821982111561201357612013611ee6565b500190565b601f82111561071057600081815260208120601f850160051c8101602086101561203f5750805b601f850160051c820191505b8181101561205e5782815560010161204b565b505050505050565b815167ffffffffffffffff81111561208057612080611bb3565b6120948161208e8454611e96565b84612018565b602080601f8311600181146120c957600084156120b15750858301515b600019600386901b1c1916600185901b17855561205e565b600085815260208120601f198616915b828110156120f8578886015182559484019460019091019084016120d9565b50858210156121165787850151600019600388901b60f8161c191681555b5050505050600190811b01905550565b60208082526032908201527f4552433732313a207472616e7366657220746f206e6f6e20455243373231526560408201527131b2b4bb32b91034b6b83632b6b2b73a32b960711b606082015260800190565b634e487b7160e01b600052601260045260246000fd5b60008261219d5761219d612178565b500490565b6000826121b1576121b1612178565b500690565b6001600160a01b03858116825284166020820152604081018390526080606082018190526000906121e990830184611a97565b9695505050505050565b60006020828403121561220557600080fd5b8151610f1581611a3856fea2646970667358221220b921fdbcf5653ff558739c64d0fed9dfe0a823042f3f25fc7865361dc8bd7c1b64736f6c634300080f0033",
  "immutableReferences": {},
  "source": "// SPDX-License-Identifier: MIT\r\npragma solidity ^0.8.0;\r\n\r\nimport \"@openzeppelin/contracts/token/ERC721/ERC721.sol\";\r\nimport \"@openzeppelin/contracts/access/Ownable.sol\";\r\n\r\ncontract LipToken is ERC721, Ownable {\r\n\r\n    constructor(string memory _name, string memory _symbol)\r\n        ERC721(_name, _symbol)\r\n    {}\r\n\r\n    uint256 COUNTER;\r\n\r\n    uint256 fee = 0.01 ether;\r\n\r\n    struct Lip {\r\n      string name;\r\n      uint256 id;\r\n      uint256 dna; // generate images like CryptoKitties\r\n      uint8 level;\r\n      uint8 rarity;\r\n      bool isKissed;\r\n    }\r\n\r\n    Lip[] public lips;\r\n\r\n    event NewLip(address indexed owner, uint256 id, uint256 dna);\r\n\r\n    function _createLip(string memory _name) internal {\r\n      uint8 randRarity = uint8(_createRandomNum(100));\r\n      uint256 randDna = _createRandomNum(10**16);\r\n      Lip memory newLip = Lip(_name, COUNTER, randDna, 1, randRarity, false);\r\n      lips.push(newLip);\r\n      _safeMint(msg.sender, COUNTER);\r\n      emit NewLip(msg.sender, COUNTER, randDna);\r\n      COUNTER++;\r\n    }\r\n\r\n    function _createRandomNum(uint256 _mod) internal view returns (uint256) {\r\n      uint256 randomNum = uint256(\r\n        keccak256(abi.encodePacked(block.timestamp, msg.sender))\r\n      );\r\n      return randomNum % _mod;\r\n    }\r\n\r\n    function updateFee(uint256 _fee) external onlyOwner {\r\n      fee = _fee;\r\n    }\r\n\r\n    function withdraw() external payable onlyOwner {\r\n      address payable _owner = payable(owner());\r\n      _owner.transfer(address(this).balance);\r\n    }\r\n\r\n    function createRandomLip(string memory _name) public payable {\r\n      require(msg.value >= fee);\r\n      _createLip(_name);\r\n    }\r\n    \r\n    function getLips() public view returns (Lip[] memory) {\r\n      return lips;\r\n    }\r\n\r\n    function getOwnerLips(address _owner) public view returns (Lip[] memory) {\r\n      Lip[] memory result = new Lip[](balanceOf(_owner));\r\n      uint256 counter = 0;\r\n      for (uint256 i = 0; i < lips.length; i++) {\r\n        if (ownerOf(i) == _owner) {\r\n          result[counter] = lips[i];\r\n          counter++;\r\n        }\r\n      }\r\n      return result;\r\n    }\r\n\r\n    function levelUp(uint256 _lipId) public {\r\n      require(ownerOf(_lipId) == msg.sender);\r\n      Lip storage lip = lips[_lipId];\r\n      lip.level++;\r\n    }\r\n\r\n    function kissTwoLips(uint256 _firstLipId, uint256 _secondLipId, string memory _name) public payable {\r\n      require(ownerOf(_firstLipId) == msg.sender);\r\n      require(ownerOf(_secondLipId) == msg.sender);\r\n      Lip storage firstLip = lips[_firstLipId];\r\n      Lip storage secondLip = lips[_secondLipId];\r\n      require(!firstLip.isKissed);\r\n      require(!secondLip.isKissed);\r\n      _createLip(_name);\r\n      firstLip.isKissed = true;\r\n      secondLip.isKissed = true;\r\n    }\r\n}",
  "sourcePath": "C:\\Users\\anhkh\\Desktop\\Dev\\cnm-nft-game\\contracts\\LipToken.sol",
  "compiler": {
    "name": "solc",
    "version": "0.8.15+commit.e14f2714.Emscripten.clang"
  },
  "schemaVersion": "3.4.7",
  "updatedAt": "2022-07-07T13:28:02.908Z",
  "networkType": "ethereum",
  "devdoc": {
    "kind": "dev",
    "methods": {
      "approve(address,uint256)": {
        "details": "See {IERC721-approve}."
      },
      "balanceOf(address)": {
        "details": "See {IERC721-balanceOf}."
      },
      "getApproved(uint256)": {
        "details": "See {IERC721-getApproved}."
      },
      "isApprovedForAll(address,address)": {
        "details": "See {IERC721-isApprovedForAll}."
      },
      "name()": {
        "details": "See {IERC721Metadata-name}."
      },
      "owner()": {
        "details": "Returns the address of the current owner."
      },
      "ownerOf(uint256)": {
        "details": "See {IERC721-ownerOf}."
      },
      "renounceOwnership()": {
        "details": "Leaves the contract without owner. It will not be possible to call `onlyOwner` functions anymore. Can only be called by the current owner. NOTE: Renouncing ownership will leave the contract without an owner, thereby removing any functionality that is only available to the owner."
      },
      "safeTransferFrom(address,address,uint256)": {
        "details": "See {IERC721-safeTransferFrom}."
      },
      "safeTransferFrom(address,address,uint256,bytes)": {
        "details": "See {IERC721-safeTransferFrom}."
      },
      "setApprovalForAll(address,bool)": {
        "details": "See {IERC721-setApprovalForAll}."
      },
      "supportsInterface(bytes4)": {
        "details": "See {IERC165-supportsInterface}."
      },
      "symbol()": {
        "details": "See {IERC721Metadata-symbol}."
      },
      "tokenURI(uint256)": {
        "details": "See {IERC721Metadata-tokenURI}."
      },
      "transferFrom(address,address,uint256)": {
        "details": "See {IERC721-transferFrom}."
      },
      "transferOwnership(address)": {
        "details": "Transfers ownership of the contract to a new account (`newOwner`). Can only be called by the current owner."
      }
    },
    "version": 1
  },
  "userdoc": {
    "kind": "user",
    "methods": {},
    "version": 1
  }
}