{
  "contractName": "LipToken",
  "abi": [
    {
      "inputs": [
        {
          "internalType": "string",
          "name": "_name",
          "type": "string"
        },
        {
          "internalType": "string",
          "name": "_symbol",
          "type": "string"
        }
      ],
      "stateMutability": "nonpayable",
      "type": "constructor"
    },
    {
      "anonymous": false,
      "inputs": [
        {
          "indexed": true,
          "internalType": "address",
          "name": "owner",
          "type": "address"
        },
        {
          "indexed": true,
          "internalType": "address",
          "name": "approved",
          "type": "address"
        },
        {
          "indexed": true,
          "internalType": "uint256",
          "name": "tokenId",
          "type": "uint256"
        }
      ],
      "name": "Approval",
      "type": "event"
    },
    {
      "anonymous": false,
      "inputs": [
        {
          "indexed": true,
          "internalType": "address",
          "name": "owner",
          "type": "address"
        },
        {
          "indexed": true,
          "internalType": "address",
          "name": "operator",
          "type": "address"
        },
        {
          "indexed": false,
          "internalType": "bool",
          "name": "approved",
          "type": "bool"
        }
      ],
      "name": "ApprovalForAll",
      "type": "event"
    },
    {
      "anonymous": false,
      "inputs": [
        {
          "indexed": true,
          "internalType": "address",
          "name": "owner",
          "type": "address"
        },
        {
          "indexed": false,
          "internalType": "uint256",
          "name": "id",
          "type": "uint256"
        },
        {
          "indexed": false,
          "internalType": "uint256",
          "name": "dna",
          "type": "uint256"
        }
      ],
      "name": "NewLip",
      "type": "event"
    },
    {
      "anonymous": false,
      "inputs": [
        {
          "indexed": true,
          "internalType": "address",
          "name": "previousOwner",
          "type": "address"
        },
        {
          "indexed": true,
          "internalType": "address",
          "name": "newOwner",
          "type": "address"
        }
      ],
      "name": "OwnershipTransferred",
      "type": "event"
    },
    {
      "anonymous": false,
      "inputs": [
        {
          "indexed": true,
          "internalType": "address",
          "name": "from",
          "type": "address"
        },
        {
          "indexed": true,
          "internalType": "address",
          "name": "to",
          "type": "address"
        },
        {
          "indexed": true,
          "internalType": "uint256",
          "name": "tokenId",
          "type": "uint256"
        }
      ],
      "name": "Transfer",
      "type": "event"
    },
    {
      "inputs": [
        {
          "internalType": "address",
          "name": "to",
          "type": "address"
        },
        {
          "internalType": "uint256",
          "name": "tokenId",
          "type": "uint256"
        }
      ],
      "name": "approve",
      "outputs": [],
      "stateMutability": "nonpayable",
      "type": "function"
    },
    {
      "inputs": [
        {
          "internalType": "address",
          "name": "owner",
          "type": "address"
        }
      ],
      "name": "balanceOf",
      "outputs": [
        {
          "internalType": "uint256",
          "name": "",
          "type": "uint256"
        }
      ],
      "stateMutability": "view",
      "type": "function",
      "constant": true
    },
    {
      "inputs": [
        {
          "internalType": "uint256",
          "name": "tokenId",
          "type": "uint256"
        }
      ],
      "name": "getApproved",
      "outputs": [
        {
          "internalType": "address",
          "name": "",
          "type": "address"
        }
      ],
      "stateMutability": "view",
      "type": "function",
      "constant": true
    },
    {
      "inputs": [
        {
          "internalType": "address",
          "name": "owner",
          "type": "address"
        },
        {
          "internalType": "address",
          "name": "operator",
          "type": "address"
        }
      ],
      "name": "isApprovedForAll",
      "outputs": [
        {
          "internalType": "bool",
          "name": "",
          "type": "bool"
        }
      ],
      "stateMutability": "view",
      "type": "function",
      "constant": true
    },
    {
      "inputs": [
        {
          "internalType": "uint256",
          "name": "",
          "type": "uint256"
        }
      ],
      "name": "lips",
      "outputs": [
        {
          "internalType": "string",
          "name": "name",
          "type": "string"
        },
        {
          "internalType": "uint256",
          "name": "id",
          "type": "uint256"
        },
        {
          "internalType": "uint256",
          "name": "dna",
          "type": "uint256"
        },
        {
          "internalType": "uint8",
          "name": "level",
          "type": "uint8"
        },
        {
          "internalType": "uint8",
          "name": "rarity",
          "type": "uint8"
        }
      ],
      "stateMutability": "view",
      "type": "function",
      "constant": true
    },
    {
      "inputs": [],
      "name": "name",
      "outputs": [
        {
          "internalType": "string",
          "name": "",
          "type": "string"
        }
      ],
      "stateMutability": "view",
      "type": "function",
      "constant": true
    },
    {
      "inputs": [],
      "name": "owner",
      "outputs": [
        {
          "internalType": "address",
          "name": "",
          "type": "address"
        }
      ],
      "stateMutability": "view",
      "type": "function",
      "constant": true
    },
    {
      "inputs": [
        {
          "internalType": "uint256",
          "name": "tokenId",
          "type": "uint256"
        }
      ],
      "name": "ownerOf",
      "outputs": [
        {
          "internalType": "address",
          "name": "",
          "type": "address"
        }
      ],
      "stateMutability": "view",
      "type": "function",
      "constant": true
    },
    {
      "inputs": [],
      "name": "renounceOwnership",
      "outputs": [],
      "stateMutability": "nonpayable",
      "type": "function"
    },
    {
      "inputs": [
        {
          "internalType": "address",
          "name": "from",
          "type": "address"
        },
        {
          "internalType": "address",
          "name": "to",
          "type": "address"
        },
        {
          "internalType": "uint256",
          "name": "tokenId",
          "type": "uint256"
        }
      ],
      "name": "safeTransferFrom",
      "outputs": [],
      "stateMutability": "nonpayable",
      "type": "function"
    },
    {
      "inputs": [
        {
          "internalType": "address",
          "name": "from",
          "type": "address"
        },
        {
          "internalType": "address",
          "name": "to",
          "type": "address"
        },
        {
          "internalType": "uint256",
          "name": "tokenId",
          "type": "uint256"
        },
        {
          "internalType": "bytes",
          "name": "_data",
          "type": "bytes"
        }
      ],
      "name": "safeTransferFrom",
      "outputs": [],
      "stateMutability": "nonpayable",
      "type": "function"
    },
    {
      "inputs": [
        {
          "internalType": "address",
          "name": "operator",
          "type": "address"
        },
        {
          "internalType": "bool",
          "name": "approved",
          "type": "bool"
        }
      ],
      "name": "setApprovalForAll",
      "outputs": [],
      "stateMutability": "nonpayable",
      "type": "function"
    },
    {
      "inputs": [
        {
          "internalType": "bytes4",
          "name": "interfaceId",
          "type": "bytes4"
        }
      ],
      "name": "supportsInterface",
      "outputs": [
        {
          "internalType": "bool",
          "name": "",
          "type": "bool"
        }
      ],
      "stateMutability": "view",
      "type": "function",
      "constant": true
    },
    {
      "inputs": [],
      "name": "symbol",
      "outputs": [
        {
          "internalType": "string",
          "name": "",
          "type": "string"
        }
      ],
      "stateMutability": "view",
      "type": "function",
      "constant": true
    },
    {
      "inputs": [
        {
          "internalType": "uint256",
          "name": "tokenId",
          "type": "uint256"
        }
      ],
      "name": "tokenURI",
      "outputs": [
        {
          "internalType": "string",
          "name": "",
          "type": "string"
        }
      ],
      "stateMutability": "view",
      "type": "function",
      "constant": true
    },
    {
      "inputs": [
        {
          "internalType": "address",
          "name": "from",
          "type": "address"
        },
        {
          "internalType": "address",
          "name": "to",
          "type": "address"
        },
        {
          "internalType": "uint256",
          "name": "tokenId",
          "type": "uint256"
        }
      ],
      "name": "transferFrom",
      "outputs": [],
      "stateMutability": "nonpayable",
      "type": "function"
    },
    {
      "inputs": [
        {
          "internalType": "address",
          "name": "newOwner",
          "type": "address"
        }
      ],
      "name": "transferOwnership",
      "outputs": [],
      "stateMutability": "nonpayable",
      "type": "function"
    },
    {
      "inputs": [
        {
          "internalType": "uint256",
          "name": "_fee",
          "type": "uint256"
        }
      ],
      "name": "updateFee",
      "outputs": [],
      "stateMutability": "nonpayable",
      "type": "function"
    },
    {
      "inputs": [],
      "name": "withdraw",
      "outputs": [],
      "stateMutability": "payable",
      "type": "function",
      "payable": true
    },
    {
      "inputs": [
        {
          "internalType": "string",
          "name": "_name",
          "type": "string"
        }
      ],
      "name": "createRandomLip",
      "outputs": [],
      "stateMutability": "payable",
      "type": "function",
      "payable": true
    },
    {
      "inputs": [],
      "name": "getLips",
      "outputs": [
        {
          "components": [
            {
              "internalType": "string",
              "name": "name",
              "type": "string"
            },
            {
              "internalType": "uint256",
              "name": "id",
              "type": "uint256"
            },
            {
              "internalType": "uint256",
              "name": "dna",
              "type": "uint256"
            },
            {
              "internalType": "uint8",
              "name": "level",
              "type": "uint8"
            },
            {
              "internalType": "uint8",
              "name": "rarity",
              "type": "uint8"
            }
          ],
          "internalType": "struct LipToken.Lip[]",
          "name": "",
          "type": "tuple[]"
        }
      ],
      "stateMutability": "view",
      "type": "function",
      "constant": true
    },
    {
      "inputs": [
        {
          "internalType": "address",
          "name": "_owner",
          "type": "address"
        }
      ],
      "name": "getOwnerLips",
      "outputs": [
        {
          "components": [
            {
              "internalType": "string",
              "name": "name",
              "type": "string"
            },
            {
              "internalType": "uint256",
              "name": "id",
              "type": "uint256"
            },
            {
              "internalType": "uint256",
              "name": "dna",
              "type": "uint256"
            },
            {
              "internalType": "uint8",
              "name": "level",
              "type": "uint8"
            },
            {
              "internalType": "uint8",
              "name": "rarity",
              "type": "uint8"
            }
          ],
          "internalType": "struct LipToken.Lip[]",
          "name": "",
          "type": "tuple[]"
        }
      ],
      "stateMutability": "view",
      "type": "function",
      "constant": true
    },
    {
      "inputs": [
        {
          "internalType": "uint256",
          "name": "_lipId",
          "type": "uint256"
        }
      ],
      "name": "levelUp",
      "outputs": [],
      "stateMutability": "nonpayable",
      "type": "function"
    }
  ],
  "bytecode": "0x6080604052662386f26fc100006008553480156200001c57600080fd5b5060405162002405380380620024058339810160408190526200003f91620001a6565b818160006200004f83826200029f565b5060016200005e82826200029f565b5050506200007b620000756200008360201b60201c565b62000087565b50506200036b565b3390565b600680546001600160a01b038381166001600160a01b0319831681179093556040519116919082907f8be0079c531659141344cd1fd0a4f28419497f9722a3daafe3b4186f6b6457e090600090a35050565b634e487b7160e01b600052604160045260246000fd5b600082601f8301126200010157600080fd5b81516001600160401b03808211156200011e576200011e620000d9565b604051601f8301601f19908116603f01168101908282118183101715620001495762000149620000d9565b816040528381526020925086838588010111156200016657600080fd5b600091505b838210156200018a57858201830151818301840152908201906200016b565b838211156200019c5760008385830101525b9695505050505050565b60008060408385031215620001ba57600080fd5b82516001600160401b0380821115620001d257600080fd5b620001e086838701620000ef565b93506020850151915080821115620001f757600080fd5b506200020685828601620000ef565b9150509250929050565b600181811c908216806200022557607f821691505b6020821081036200024657634e487b7160e01b600052602260045260246000fd5b50919050565b601f8211156200029a57600081815260208120601f850160051c81016020861015620002755750805b601f850160051c820191505b81811015620002965782815560010162000281565b5050505b505050565b81516001600160401b03811115620002bb57620002bb620000d9565b620002d381620002cc845462000210565b846200024c565b602080601f8311600181146200030b5760008415620002f25750858301515b600019600386901b1c1916600185901b17855562000296565b600085815260208120601f198616915b828110156200033c578886015182559484019460019091019084016200031b565b50858210156200035b5787850151600019600388901b60f8161c191681555b5050505050600190811b01905550565b61208a806200037b6000396000f3fe6080604052600436106101405760003560e01c806370a08231116100b657806395d89b411161006f57806395d89b4114610385578063a22cb4651461039a578063b88d4fde146103ba578063c87b56dd146103da578063e985e9c5146103fa578063f2fde38b1461044357600080fd5b806370a08231146102c2578063715018a6146102f057806383b5daf7146103055780638c0b9c54146103275780638da5cb5b146103475780639012c4a81461036557600080fd5b806323b872dd1161010857806323b872dd146102165780633ccfd60b1461023657806342842e0e1461023e5780635ec163db1461025e5780636352211e1461028f578063698d640c146102af57600080fd5b806301ffc9a71461014557806306fdde031461017a578063081812fc1461019c578063095ea7b3146101d45780630ce90ec2146101f6575b600080fd5b34801561015157600080fd5b50610165610160366004611904565b610463565b60405190151581526020015b60405180910390f35b34801561018657600080fd5b5061018f6104b5565b6040516101719190611979565b3480156101a857600080fd5b506101bc6101b736600461198c565b610547565b6040516001600160a01b039091168152602001610171565b3480156101e057600080fd5b506101f46101ef3660046119c1565b6105e1565b005b34801561020257600080fd5b506101f461021136600461198c565b6106f6565b34801561022257600080fd5b506101f46102313660046119eb565b61076d565b6101f461079e565b34801561024a57600080fd5b506101f46102593660046119eb565b610818565b34801561026a57600080fd5b5061027e61027936600461198c565b610833565b604051610171959493929190611a27565b34801561029b57600080fd5b506101bc6102aa36600461198c565b610909565b6101f46102bd366004611aed565b610980565b3480156102ce57600080fd5b506102e26102dd366004611b36565b61099b565b604051908152602001610171565b3480156102fc57600080fd5b506101f4610a22565b34801561031157600080fd5b5061031a610a58565b6040516101719190611b51565b34801561033357600080fd5b5061031a610342366004611b36565b610b7e565b34801561035357600080fd5b506006546001600160a01b03166101bc565b34801561037157600080fd5b506101f461038036600461198c565b610d75565b34801561039157600080fd5b5061018f610da4565b3480156103a657600080fd5b506101f46103b5366004611bef565b610db3565b3480156103c657600080fd5b506101f46103d5366004611c2b565b610dbe565b3480156103e657600080fd5b5061018f6103f536600461198c565b610df6565b34801561040657600080fd5b50610165610415366004611ca7565b6001600160a01b03918216600090815260056020908152604080832093909416825291909152205460ff1690565b34801561044f57600080fd5b506101f461045e366004611b36565b610ede565b60006001600160e01b031982166380ac58cd60e01b148061049457506001600160e01b03198216635b5e139f60e01b145b806104af57506301ffc9a760e01b6001600160e01b03198316145b92915050565b6060600080546104c490611cda565b80601f01602080910402602001604051908101604052809291908181526020018280546104f090611cda565b801561053d5780601f106105125761010080835404028352916020019161053d565b820191906000526020600020905b81548152906001019060200180831161052057829003601f168201915b5050505050905090565b6000818152600260205260408120546001600160a01b03166105c55760405162461bcd60e51b815260206004820152602c60248201527f4552433732313a20617070726f76656420717565727920666f72206e6f6e657860448201526b34b9ba32b73a103a37b5b2b760a11b60648201526084015b60405180910390fd5b506000908152600460205260409020546001600160a01b031690565b60006105ec82610909565b9050806001600160a01b0316836001600160a01b0316036106595760405162461bcd60e51b815260206004820152602160248201527f4552433732313a20617070726f76616c20746f2063757272656e74206f776e656044820152603960f91b60648201526084016105bc565b336001600160a01b038216148061067557506106758133610415565b6106e75760405162461bcd60e51b815260206004820152603860248201527f4552433732313a20617070726f76652063616c6c6572206973206e6f74206f7760448201527f6e6572206e6f7220617070726f76656420666f7220616c6c000000000000000060648201526084016105bc565b6106f18383610f76565b505050565b3361070082610909565b6001600160a01b03161461071357600080fd5b60006009828154811061072857610728611d14565b6000918252602082206003600490920201908101805491935060ff9091169161075083611d40565b91906101000a81548160ff021916908360ff160217905550505050565b6107773382610fe4565b6107935760405162461bcd60e51b81526004016105bc90611d5f565b6106f18383836110db565b6006546001600160a01b031633146107c85760405162461bcd60e51b81526004016105bc90611db0565b60006107dc6006546001600160a01b031690565b6040519091506001600160a01b038216904780156108fc02916000818181858888f19350505050158015610814573d6000803e3d6000fd5b5050565b6106f183838360405180602001604052806000815250610dbe565b6009818154811061084357600080fd5b906000526020600020906004020160009150905080600001805461086690611cda565b80601f016020809104026020016040519081016040528092919081815260200182805461089290611cda565b80156108df5780601f106108b4576101008083540402835291602001916108df565b820191906000526020600020905b8154815290600101906020018083116108c257829003601f168201915b50505050600183015460028401546003909401549293909290915060ff8082169161010090041685565b6000818152600260205260408120546001600160a01b0316806104af5760405162461bcd60e51b815260206004820152602960248201527f4552433732313a206f776e657220717565727920666f72206e6f6e657869737460448201526832b73a103a37b5b2b760b91b60648201526084016105bc565b60085434101561098f57600080fd5b61099881611277565b50565b60006001600160a01b038216610a065760405162461bcd60e51b815260206004820152602a60248201527f4552433732313a2062616c616e636520717565727920666f7220746865207a65604482015269726f206164647265737360b01b60648201526084016105bc565b506001600160a01b031660009081526003602052604090205490565b6006546001600160a01b03163314610a4c5760405162461bcd60e51b81526004016105bc90611db0565b610a5660006113b5565b565b60606009805480602002602001604051908101604052809291908181526020016000905b82821015610b7557838290600052602060002090600402016040518060a0016040529081600082018054610aaf90611cda565b80601f0160208091040260200160405190810160405280929190818152602001828054610adb90611cda565b8015610b285780601f10610afd57610100808354040283529160200191610b28565b820191906000526020600020905b815481529060010190602001808311610b0b57829003601f168201915b50505091835250506001828101546020808401919091526002840154604084015260039093015460ff80821660608501526101009091041660809092019190915291835292019101610a7c565b50505050905090565b60606000610b8b8361099b565b67ffffffffffffffff811115610ba357610ba3611a61565b604051908082528060200260200182016040528015610c0c57816020015b610bf96040518060a00160405280606081526020016000815260200160008152602001600060ff168152602001600060ff1681525090565b815260200190600190039081610bc15790505b5090506000805b600954811015610d6c57846001600160a01b0316610c3082610909565b6001600160a01b031603610d5a5760098181548110610c5157610c51611d14565b90600052602060002090600402016040518060a0016040529081600082018054610c7a90611cda565b80601f0160208091040260200160405190810160405280929190818152602001828054610ca690611cda565b8015610cf35780601f10610cc857610100808354040283529160200191610cf3565b820191906000526020600020905b815481529060010190602001808311610cd657829003601f168201915b5050509183525050600182015460208201526002820154604082015260039091015460ff8082166060840152610100909104166080909101528351849084908110610d4057610d40611d14565b60200260200101819052508180610d5690611de5565b9250505b80610d6481611de5565b915050610c13565b50909392505050565b6006546001600160a01b03163314610d9f5760405162461bcd60e51b81526004016105bc90611db0565b600855565b6060600180546104c490611cda565b610814338383611407565b610dc83383610fe4565b610de45760405162461bcd60e51b81526004016105bc90611d5f565b610df0848484846114d5565b50505050565b6000818152600260205260409020546060906001600160a01b0316610e755760405162461bcd60e51b815260206004820152602f60248201527f4552433732314d657461646174613a2055524920717565727920666f72206e6f60448201526e3732bc34b9ba32b73a103a37b5b2b760891b60648201526084016105bc565b6000610e8c60408051602081019091526000815290565b90506000815111610eac5760405180602001604052806000815250610ed7565b80610eb684611508565b604051602001610ec7929190611dfe565b6040516020818303038152906040525b9392505050565b6006546001600160a01b03163314610f085760405162461bcd60e51b81526004016105bc90611db0565b6001600160a01b038116610f6d5760405162461bcd60e51b815260206004820152602660248201527f4f776e61626c653a206e6577206f776e657220697320746865207a65726f206160448201526564647265737360d01b60648201526084016105bc565b610998816113b5565b600081815260046020526040902080546001600160a01b0319166001600160a01b0384169081179091558190610fab82610909565b6001600160a01b03167f8c5be1e5ebec7d5bd14f71427d1e84f3dd0314c0f7b2291e5b200ac8c7c3b92560405160405180910390a45050565b6000818152600260205260408120546001600160a01b031661105d5760405162461bcd60e51b815260206004820152602c60248201527f4552433732313a206f70657261746f7220717565727920666f72206e6f6e657860448201526b34b9ba32b73a103a37b5b2b760a11b60648201526084016105bc565b600061106883610909565b9050806001600160a01b0316846001600160a01b031614806110af57506001600160a01b0380821660009081526005602090815260408083209388168352929052205460ff165b806110d35750836001600160a01b03166110c884610547565b6001600160a01b0316145b949350505050565b826001600160a01b03166110ee82610909565b6001600160a01b0316146111525760405162461bcd60e51b815260206004820152602560248201527f4552433732313a207472616e736665722066726f6d20696e636f72726563742060448201526437bbb732b960d91b60648201526084016105bc565b6001600160a01b0382166111b45760405162461bcd60e51b8152602060048201526024808201527f4552433732313a207472616e7366657220746f20746865207a65726f206164646044820152637265737360e01b60648201526084016105bc565b6111bf600082610f76565b6001600160a01b03831660009081526003602052604081208054600192906111e8908490611e2d565b90915550506001600160a01b0382166000908152600360205260408120805460019290611216908490611e44565b909155505060008181526002602052604080822080546001600160a01b0319166001600160a01b0386811691821790925591518493918716917fddf252ad1be2c89b69c2b068fc378daa952ba7f163c4a11628f55a4df523b3ef91a4505050565b60006112836064611609565b90506000611297662386f26fc10000611609565b6040805160a081018252858152600754602082015290810182905260016060820181905260ff851660808301526009805491820181556000528151929350909182916004027f6e1540171b6c0c960b71a7020d9f60077f6af931a8bbf590da0223dacf75c7af0190819061130b9082611eaa565b50602082015160018201556040820151600282015560608201516003909101805460809093015160ff9081166101000261ffff1990941692169190911791909117905560075461135c90339061165e565b600754604080519182526020820184905233917f24d2d558f98bdd9d21339e119fc0b03e213c7d05affd838ac2ee136d90e3bbeb910160405180910390a2600780549060006113aa83611de5565b919050555050505050565b600680546001600160a01b038381166001600160a01b0319831681179093556040519116919082907f8be0079c531659141344cd1fd0a4f28419497f9722a3daafe3b4186f6b6457e090600090a35050565b816001600160a01b0316836001600160a01b0316036114685760405162461bcd60e51b815260206004820152601960248201527f4552433732313a20617070726f766520746f2063616c6c65720000000000000060448201526064016105bc565b6001600160a01b03838116600081815260056020908152604080832094871680845294825291829020805460ff191686151590811790915591519182527f17307eab39ab6107e8899845ad3d59bd9653f200f220920489ca2b5937696c31910160405180910390a3505050565b6114e08484846110db565b6114ec84848484611678565b610df05760405162461bcd60e51b81526004016105bc90611f6a565b60608160000361152f5750506040805180820190915260018152600360fc1b602082015290565b8160005b8115611559578061154381611de5565b91506115529050600a83611fd2565b9150611533565b60008167ffffffffffffffff81111561157457611574611a61565b6040519080825280601f01601f19166020018201604052801561159e576020820181803683370190505b5090505b84156110d3576115b3600183611e2d565b91506115c0600a86611fe6565b6115cb906030611e44565b60f81b8183815181106115e0576115e0611d14565b60200101906001600160f81b031916908160001a905350611602600a86611fd2565b94506115a2565b600080423360405160200161163a92919091825260601b6bffffffffffffffffffffffff1916602082015260340190565b60408051601f1981840301815291905280516020909101209050610ed78382611fe6565b610814828260405180602001604052806000815250611779565b60006001600160a01b0384163b1561176e57604051630a85bd0160e11b81526001600160a01b0385169063150b7a02906116bc903390899088908890600401611ffa565b6020604051808303816000875af19250505080156116f7575060408051601f3d908101601f191682019092526116f491810190612037565b60015b611754573d808015611725576040519150601f19603f3d011682016040523d82523d6000602084013e61172a565b606091505b50805160000361174c5760405162461bcd60e51b81526004016105bc90611f6a565b805181602001fd5b6001600160e01b031916630a85bd0160e11b1490506110d3565b506001949350505050565b61178383836117ac565b6117906000848484611678565b6106f15760405162461bcd60e51b81526004016105bc90611f6a565b6001600160a01b0382166118025760405162461bcd60e51b815260206004820181905260248201527f4552433732313a206d696e7420746f20746865207a65726f206164647265737360448201526064016105bc565b6000818152600260205260409020546001600160a01b0316156118675760405162461bcd60e51b815260206004820152601c60248201527f4552433732313a20746f6b656e20616c7265616479206d696e7465640000000060448201526064016105bc565b6001600160a01b0382166000908152600360205260408120805460019290611890908490611e44565b909155505060008181526002602052604080822080546001600160a01b0319166001600160a01b03861690811790915590518392907fddf252ad1be2c89b69c2b068fc378daa952ba7f163c4a11628f55a4df523b3ef908290a45050565b6001600160e01b03198116811461099857600080fd5b60006020828403121561191657600080fd5b8135610ed7816118ee565b60005b8381101561193c578181015183820152602001611924565b83811115610df05750506000910152565b60008151808452611965816020860160208601611921565b601f01601f19169290920160200192915050565b602081526000610ed7602083018461194d565b60006020828403121561199e57600080fd5b5035919050565b80356001600160a01b03811681146119bc57600080fd5b919050565b600080604083850312156119d457600080fd5b6119dd836119a5565b946020939093013593505050565b600080600060608486031215611a0057600080fd5b611a09846119a5565b9250611a17602085016119a5565b9150604084013590509250925092565b60a081526000611a3a60a083018861194d565b602083019690965250604081019390935260ff918216606084015216608090910152919050565b634e487b7160e01b600052604160045260246000fd5b600067ffffffffffffffff80841115611a9257611a92611a61565b604051601f8501601f19908116603f01168101908282118183101715611aba57611aba611a61565b81604052809350858152868686011115611ad357600080fd5b858560208301376000602087830101525050509392505050565b600060208284031215611aff57600080fd5b813567ffffffffffffffff811115611b1657600080fd5b8201601f81018413611b2757600080fd5b6110d384823560208401611a77565b600060208284031215611b4857600080fd5b610ed7826119a5565b60006020808301818452808551808352604092508286019150828160051b87010184880160005b83811015611be157603f19898403018552815160a08151818652611b9e8287018261194d565b838b0151878c0152898401518a88015260608085015160ff9081169189019190915260809485015116939096019290925250509386019390860190600101611b78565b509098975050505050505050565b60008060408385031215611c0257600080fd5b611c0b836119a5565b915060208301358015158114611c2057600080fd5b809150509250929050565b60008060008060808587031215611c4157600080fd5b611c4a856119a5565b9350611c58602086016119a5565b925060408501359150606085013567ffffffffffffffff811115611c7b57600080fd5b8501601f81018713611c8c57600080fd5b611c9b87823560208401611a77565b91505092959194509250565b60008060408385031215611cba57600080fd5b611cc3836119a5565b9150611cd1602084016119a5565b90509250929050565b600181811c90821680611cee57607f821691505b602082108103611d0e57634e487b7160e01b600052602260045260246000fd5b50919050565b634e487b7160e01b600052603260045260246000fd5b634e487b7160e01b600052601160045260246000fd5b600060ff821660ff8103611d5657611d56611d2a565b60010192915050565b60208082526031908201527f4552433732313a207472616e736665722063616c6c6572206973206e6f74206f6040820152701ddb995c881b9bdc88185c1c1c9bdd9959607a1b606082015260800190565b6020808252818101527f4f776e61626c653a2063616c6c6572206973206e6f7420746865206f776e6572604082015260600190565b600060018201611df757611df7611d2a565b5060010190565b60008351611e10818460208801611921565b835190830190611e24818360208801611921565b01949350505050565b600082821015611e3f57611e3f611d2a565b500390565b60008219821115611e5757611e57611d2a565b500190565b601f8211156106f157600081815260208120601f850160051c81016020861015611e835750805b601f850160051c820191505b81811015611ea257828155600101611e8f565b505050505050565b815167ffffffffffffffff811115611ec457611ec4611a61565b611ed881611ed28454611cda565b84611e5c565b602080601f831160018114611f0d5760008415611ef55750858301515b600019600386901b1c1916600185901b178555611ea2565b600085815260208120601f198616915b82811015611f3c57888601518255948401946001909101908401611f1d565b5085821015611f5a5787850151600019600388901b60f8161c191681555b5050505050600190811b01905550565b60208082526032908201527f4552433732313a207472616e7366657220746f206e6f6e20455243373231526560408201527131b2b4bb32b91034b6b83632b6b2b73a32b960711b606082015260800190565b634e487b7160e01b600052601260045260246000fd5b600082611fe157611fe1611fbc565b500490565b600082611ff557611ff5611fbc565b500690565b6001600160a01b038581168252841660208201526040810183905260806060820181905260009061202d9083018461194d565b9695505050505050565b60006020828403121561204957600080fd5b8151610ed7816118ee56fea2646970667358221220393db978f81c9faf2ea753401e484c34b29ce0805a27861848087b8b43fa1a7b64736f6c634300080f0033",
  "immutableReferences": {},
  "source": "// SPDX-License-Identifier: MIT\r\npragma solidity ^0.8.0;\r\n\r\nimport \"@openzeppelin/contracts/token/ERC721/ERC721.sol\";\r\nimport \"@openzeppelin/contracts/access/Ownable.sol\";\r\n\r\ncontract LipToken is ERC721, Ownable {\r\n\r\n    constructor(string memory _name, string memory _symbol)\r\n        ERC721(_name, _symbol)\r\n    {}\r\n\r\n    uint256 COUNTER;\r\n\r\n    uint256 fee = 0.01 ether;\r\n\r\n    struct Lip {\r\n      string name;\r\n      uint256 id;\r\n      uint256 dna; // generate images like CryptoKitties\r\n      uint8 level;\r\n      uint8 rarity;\r\n    }\r\n\r\n    Lip[] public lips;\r\n\r\n    event NewLip(address indexed owner, uint256 id, uint256 dna);\r\n\r\n    function _createLip(string memory _name) internal {\r\n      uint8 randRarity = uint8(_createRandomNum(100));\r\n      uint256 randDna = _createRandomNum(10**16);\r\n      Lip memory newLip = Lip(_name, COUNTER, randDna, 1, randRarity);\r\n      lips.push(newLip);\r\n      _safeMint(msg.sender, COUNTER);\r\n      emit NewLip(msg.sender, COUNTER, randDna);\r\n      COUNTER++;\r\n    }\r\n\r\n    function _createRandomNum(uint256 _mod) internal view returns (uint256) {\r\n      uint256 randomNum = uint256(\r\n        keccak256(abi.encodePacked(block.timestamp, msg.sender))\r\n      );\r\n      return randomNum % _mod;\r\n    }\r\n\r\n    function updateFee(uint256 _fee) external onlyOwner {\r\n      fee = _fee;\r\n    }\r\n\r\n    function withdraw() external payable onlyOwner {\r\n      address payable _owner = payable(owner());\r\n      _owner.transfer(address(this).balance);\r\n    }\r\n\r\n    function createRandomLip(string memory _name) public payable {\r\n      require(msg.value >= fee);\r\n      _createLip(_name);\r\n    }\r\n    \r\n    function getLips() public view returns (Lip[] memory) {\r\n      return lips;\r\n    }\r\n\r\n    function getOwnerLips(address _owner) public view returns (Lip[] memory) {\r\n      Lip[] memory result = new Lip[](balanceOf(_owner));\r\n      uint256 counter = 0;\r\n      for (uint256 i = 0; i < lips.length; i++) {\r\n        if (ownerOf(i) == _owner) {\r\n          result[counter] = lips[i];\r\n          counter++;\r\n        }\r\n      }\r\n      return result;\r\n    }\r\n\r\n    function levelUp(uint256 _lipId) public {\r\n      require(ownerOf(_lipId) == msg.sender);\r\n      Lip storage lip = lips[_lipId];\r\n      lip.level++;\r\n    }\r\n}",
  "sourcePath": "C:\\Users\\anhkh\\Desktop\\Dev\\cnm-nft-game\\contracts\\LipToken.sol",
  "compiler": {
    "name": "solc",
    "version": "0.8.15+commit.e14f2714.Emscripten.clang"
  },
  "schemaVersion": "3.4.7",
  "updatedAt": "2022-06-29T09:16:18.717Z",
  "networkType": "ethereum",
  "devdoc": {
    "kind": "dev",
    "methods": {
      "approve(address,uint256)": {
        "details": "See {IERC721-approve}."
      },
      "balanceOf(address)": {
        "details": "See {IERC721-balanceOf}."
      },
      "getApproved(uint256)": {
        "details": "See {IERC721-getApproved}."
      },
      "isApprovedForAll(address,address)": {
        "details": "See {IERC721-isApprovedForAll}."
      },
      "name()": {
        "details": "See {IERC721Metadata-name}."
      },
      "owner()": {
        "details": "Returns the address of the current owner."
      },
      "ownerOf(uint256)": {
        "details": "See {IERC721-ownerOf}."
      },
      "renounceOwnership()": {
        "details": "Leaves the contract without owner. It will not be possible to call `onlyOwner` functions anymore. Can only be called by the current owner. NOTE: Renouncing ownership will leave the contract without an owner, thereby removing any functionality that is only available to the owner."
      },
      "safeTransferFrom(address,address,uint256)": {
        "details": "See {IERC721-safeTransferFrom}."
      },
      "safeTransferFrom(address,address,uint256,bytes)": {
        "details": "See {IERC721-safeTransferFrom}."
      },
      "setApprovalForAll(address,bool)": {
        "details": "See {IERC721-setApprovalForAll}."
      },
      "supportsInterface(bytes4)": {
        "details": "See {IERC165-supportsInterface}."
      },
      "symbol()": {
        "details": "See {IERC721Metadata-symbol}."
      },
      "tokenURI(uint256)": {
        "details": "See {IERC721Metadata-tokenURI}."
      },
      "transferFrom(address,address,uint256)": {
        "details": "See {IERC721-transferFrom}."
      },
      "transferOwnership(address)": {
        "details": "Transfers ownership of the contract to a new account (`newOwner`). Can only be called by the current owner."
      }
    },
    "version": 1
  },
  "userdoc": {
    "kind": "user",
    "methods": {},
    "version": 1
  }
}