{
  "contractName": "LipToken",
  "abi": [
    {
      "inputs": [
        {
          "internalType": "string",
          "name": "_name",
          "type": "string"
        },
        {
          "internalType": "string",
          "name": "_symbol",
          "type": "string"
        }
      ],
      "stateMutability": "nonpayable",
      "type": "constructor"
    },
    {
      "anonymous": false,
      "inputs": [
        {
          "indexed": true,
          "internalType": "address",
          "name": "owner",
          "type": "address"
        },
        {
          "indexed": true,
          "internalType": "address",
          "name": "approved",
          "type": "address"
        },
        {
          "indexed": true,
          "internalType": "uint256",
          "name": "tokenId",
          "type": "uint256"
        }
      ],
      "name": "Approval",
      "type": "event"
    },
    {
      "anonymous": false,
      "inputs": [
        {
          "indexed": true,
          "internalType": "address",
          "name": "owner",
          "type": "address"
        },
        {
          "indexed": true,
          "internalType": "address",
          "name": "operator",
          "type": "address"
        },
        {
          "indexed": false,
          "internalType": "bool",
          "name": "approved",
          "type": "bool"
        }
      ],
      "name": "ApprovalForAll",
      "type": "event"
    },
    {
      "anonymous": false,
      "inputs": [
        {
          "indexed": true,
          "internalType": "address",
          "name": "owner",
          "type": "address"
        },
        {
          "indexed": false,
          "internalType": "uint256",
          "name": "id",
          "type": "uint256"
        },
        {
          "indexed": false,
          "internalType": "uint256",
          "name": "dna",
          "type": "uint256"
        }
      ],
      "name": "NewLip",
      "type": "event"
    },
    {
      "anonymous": false,
      "inputs": [
        {
          "indexed": true,
          "internalType": "address",
          "name": "previousOwner",
          "type": "address"
        },
        {
          "indexed": true,
          "internalType": "address",
          "name": "newOwner",
          "type": "address"
        }
      ],
      "name": "OwnershipTransferred",
      "type": "event"
    },
    {
      "anonymous": false,
      "inputs": [
        {
          "indexed": true,
          "internalType": "address",
          "name": "from",
          "type": "address"
        },
        {
          "indexed": true,
          "internalType": "address",
          "name": "to",
          "type": "address"
        },
        {
          "indexed": true,
          "internalType": "uint256",
          "name": "tokenId",
          "type": "uint256"
        }
      ],
      "name": "Transfer",
      "type": "event"
    },
    {
      "inputs": [
        {
          "internalType": "address",
          "name": "to",
          "type": "address"
        },
        {
          "internalType": "uint256",
          "name": "tokenId",
          "type": "uint256"
        }
      ],
      "name": "approve",
      "outputs": [],
      "stateMutability": "nonpayable",
      "type": "function"
    },
    {
      "inputs": [
        {
          "internalType": "address",
          "name": "owner",
          "type": "address"
        }
      ],
      "name": "balanceOf",
      "outputs": [
        {
          "internalType": "uint256",
          "name": "",
          "type": "uint256"
        }
      ],
      "stateMutability": "view",
      "type": "function",
      "constant": true
    },
    {
      "inputs": [
        {
          "internalType": "uint256",
          "name": "tokenId",
          "type": "uint256"
        }
      ],
      "name": "getApproved",
      "outputs": [
        {
          "internalType": "address",
          "name": "",
          "type": "address"
        }
      ],
      "stateMutability": "view",
      "type": "function",
      "constant": true
    },
    {
      "inputs": [
        {
          "internalType": "address",
          "name": "owner",
          "type": "address"
        },
        {
          "internalType": "address",
          "name": "operator",
          "type": "address"
        }
      ],
      "name": "isApprovedForAll",
      "outputs": [
        {
          "internalType": "bool",
          "name": "",
          "type": "bool"
        }
      ],
      "stateMutability": "view",
      "type": "function",
      "constant": true
    },
    {
      "inputs": [
        {
          "internalType": "uint256",
          "name": "",
          "type": "uint256"
        }
      ],
      "name": "lips",
      "outputs": [
        {
          "internalType": "string",
          "name": "name",
          "type": "string"
        },
        {
          "internalType": "uint256",
          "name": "id",
          "type": "uint256"
        },
        {
          "internalType": "uint256",
          "name": "dna",
          "type": "uint256"
        },
        {
          "internalType": "uint8",
          "name": "level",
          "type": "uint8"
        },
        {
          "internalType": "uint8",
          "name": "rarity",
          "type": "uint8"
        },
        {
          "internalType": "bool",
          "name": "isKissed",
          "type": "bool"
        }
      ],
      "stateMutability": "view",
      "type": "function",
      "constant": true
    },
    {
      "inputs": [],
      "name": "name",
      "outputs": [
        {
          "internalType": "string",
          "name": "",
          "type": "string"
        }
      ],
      "stateMutability": "view",
      "type": "function",
      "constant": true
    },
    {
      "inputs": [],
      "name": "owner",
      "outputs": [
        {
          "internalType": "address",
          "name": "",
          "type": "address"
        }
      ],
      "stateMutability": "view",
      "type": "function",
      "constant": true
    },
    {
      "inputs": [
        {
          "internalType": "uint256",
          "name": "tokenId",
          "type": "uint256"
        }
      ],
      "name": "ownerOf",
      "outputs": [
        {
          "internalType": "address",
          "name": "",
          "type": "address"
        }
      ],
      "stateMutability": "view",
      "type": "function",
      "constant": true
    },
    {
      "inputs": [],
      "name": "renounceOwnership",
      "outputs": [],
      "stateMutability": "nonpayable",
      "type": "function"
    },
    {
      "inputs": [
        {
          "internalType": "address",
          "name": "from",
          "type": "address"
        },
        {
          "internalType": "address",
          "name": "to",
          "type": "address"
        },
        {
          "internalType": "uint256",
          "name": "tokenId",
          "type": "uint256"
        }
      ],
      "name": "safeTransferFrom",
      "outputs": [],
      "stateMutability": "nonpayable",
      "type": "function"
    },
    {
      "inputs": [
        {
          "internalType": "address",
          "name": "from",
          "type": "address"
        },
        {
          "internalType": "address",
          "name": "to",
          "type": "address"
        },
        {
          "internalType": "uint256",
          "name": "tokenId",
          "type": "uint256"
        },
        {
          "internalType": "bytes",
          "name": "_data",
          "type": "bytes"
        }
      ],
      "name": "safeTransferFrom",
      "outputs": [],
      "stateMutability": "nonpayable",
      "type": "function"
    },
    {
      "inputs": [
        {
          "internalType": "address",
          "name": "operator",
          "type": "address"
        },
        {
          "internalType": "bool",
          "name": "approved",
          "type": "bool"
        }
      ],
      "name": "setApprovalForAll",
      "outputs": [],
      "stateMutability": "nonpayable",
      "type": "function"
    },
    {
      "inputs": [
        {
          "internalType": "bytes4",
          "name": "interfaceId",
          "type": "bytes4"
        }
      ],
      "name": "supportsInterface",
      "outputs": [
        {
          "internalType": "bool",
          "name": "",
          "type": "bool"
        }
      ],
      "stateMutability": "view",
      "type": "function",
      "constant": true
    },
    {
      "inputs": [],
      "name": "symbol",
      "outputs": [
        {
          "internalType": "string",
          "name": "",
          "type": "string"
        }
      ],
      "stateMutability": "view",
      "type": "function",
      "constant": true
    },
    {
      "inputs": [
        {
          "internalType": "uint256",
          "name": "tokenId",
          "type": "uint256"
        }
      ],
      "name": "tokenURI",
      "outputs": [
        {
          "internalType": "string",
          "name": "",
          "type": "string"
        }
      ],
      "stateMutability": "view",
      "type": "function",
      "constant": true
    },
    {
      "inputs": [
        {
          "internalType": "address",
          "name": "from",
          "type": "address"
        },
        {
          "internalType": "address",
          "name": "to",
          "type": "address"
        },
        {
          "internalType": "uint256",
          "name": "tokenId",
          "type": "uint256"
        }
      ],
      "name": "transferFrom",
      "outputs": [],
      "stateMutability": "nonpayable",
      "type": "function"
    },
    {
      "inputs": [
        {
          "internalType": "address",
          "name": "newOwner",
          "type": "address"
        }
      ],
      "name": "transferOwnership",
      "outputs": [],
      "stateMutability": "nonpayable",
      "type": "function"
    },
    {
      "inputs": [
        {
          "internalType": "uint256",
          "name": "_fee",
          "type": "uint256"
        }
      ],
      "name": "updateFee",
      "outputs": [],
      "stateMutability": "nonpayable",
      "type": "function"
    },
    {
      "inputs": [],
      "name": "withdraw",
      "outputs": [],
      "stateMutability": "payable",
      "type": "function",
      "payable": true
    },
    {
      "inputs": [
        {
          "internalType": "string",
          "name": "_name",
          "type": "string"
        }
      ],
      "name": "createRandomLip",
      "outputs": [],
      "stateMutability": "payable",
      "type": "function",
      "payable": true
    },
    {
      "inputs": [],
      "name": "getLips",
      "outputs": [
        {
          "components": [
            {
              "internalType": "string",
              "name": "name",
              "type": "string"
            },
            {
              "internalType": "uint256",
              "name": "id",
              "type": "uint256"
            },
            {
              "internalType": "uint256",
              "name": "dna",
              "type": "uint256"
            },
            {
              "internalType": "uint8",
              "name": "level",
              "type": "uint8"
            },
            {
              "internalType": "uint8",
              "name": "rarity",
              "type": "uint8"
            },
            {
              "internalType": "bool",
              "name": "isKissed",
              "type": "bool"
            }
          ],
          "internalType": "struct LipToken.Lip[]",
          "name": "",
          "type": "tuple[]"
        }
      ],
      "stateMutability": "view",
      "type": "function",
      "constant": true
    },
    {
      "inputs": [
        {
          "internalType": "address",
          "name": "_owner",
          "type": "address"
        }
      ],
      "name": "getOwnerLips",
      "outputs": [
        {
          "components": [
            {
              "internalType": "string",
              "name": "name",
              "type": "string"
            },
            {
              "internalType": "uint256",
              "name": "id",
              "type": "uint256"
            },
            {
              "internalType": "uint256",
              "name": "dna",
              "type": "uint256"
            },
            {
              "internalType": "uint8",
              "name": "level",
              "type": "uint8"
            },
            {
              "internalType": "uint8",
              "name": "rarity",
              "type": "uint8"
            },
            {
              "internalType": "bool",
              "name": "isKissed",
              "type": "bool"
            }
          ],
          "internalType": "struct LipToken.Lip[]",
          "name": "",
          "type": "tuple[]"
        }
      ],
      "stateMutability": "view",
      "type": "function",
      "constant": true
    },
    {
      "inputs": [
        {
          "internalType": "uint256",
          "name": "_lipId",
          "type": "uint256"
        }
      ],
      "name": "levelUp",
      "outputs": [],
      "stateMutability": "nonpayable",
      "type": "function"
    },
    {
      "inputs": [
        {
          "internalType": "uint256",
          "name": "_firstLipId",
          "type": "uint256"
        },
        {
          "internalType": "uint256",
          "name": "_secondLipId",
          "type": "uint256"
        },
        {
          "internalType": "string",
          "name": "_name",
          "type": "string"
        }
      ],
      "name": "kissTwoLips",
      "outputs": [],
      "stateMutability": "payable",
      "type": "function",
      "payable": true
    },
    {
      "inputs": [
        {
          "internalType": "uint256",
          "name": "_lipId",
          "type": "uint256"
        },
        {
          "internalType": "address",
          "name": "_receiver",
          "type": "address"
        }
      ],
      "name": "simpleTransfer",
      "outputs": [],
      "stateMutability": "payable",
      "type": "function",
      "payable": true
    }
  ],
  "bytecode": "0x6080604052662386f26fc100006008553480156200001c57600080fd5b506040516200261d3803806200261d8339810160408190526200003f91620001a6565b818160006200004f83826200029f565b5060016200005e82826200029f565b5050506200007b620000756200008360201b60201c565b62000087565b50506200036b565b3390565b600680546001600160a01b038381166001600160a01b0319831681179093556040519116919082907f8be0079c531659141344cd1fd0a4f28419497f9722a3daafe3b4186f6b6457e090600090a35050565b634e487b7160e01b600052604160045260246000fd5b600082601f8301126200010157600080fd5b81516001600160401b03808211156200011e576200011e620000d9565b604051601f8301601f19908116603f01168101908282118183101715620001495762000149620000d9565b816040528381526020925086838588010111156200016657600080fd5b600091505b838210156200018a57858201830151818301840152908201906200016b565b838211156200019c5760008385830101525b9695505050505050565b60008060408385031215620001ba57600080fd5b82516001600160401b0380821115620001d257600080fd5b620001e086838701620000ef565b93506020850151915080821115620001f757600080fd5b506200020685828601620000ef565b9150509250929050565b600181811c908216806200022557607f821691505b6020821081036200024657634e487b7160e01b600052602260045260246000fd5b50919050565b601f8211156200029a57600081815260208120601f850160051c81016020861015620002755750805b601f850160051c820191505b81811015620002965782815560010162000281565b5050505b505050565b81516001600160401b03811115620002bb57620002bb620000d9565b620002d381620002cc845462000210565b846200024c565b602080601f8311600181146200030b5760008415620002f25750858301515b600019600386901b1c1916600185901b17855562000296565b600085815260208120601f198616915b828110156200033c578886015182559484019460019091019084016200031b565b50858210156200035b5787850151600019600388901b60f8161c191681555b5050505050600190811b01905550565b6122a2806200037b6000396000f3fe6080604052600436106101665760003560e01c8063715018a6116100d1578063a22cb4651161008a578063e713851e11610064578063e713851e14610421578063e985e9c514610434578063f2fde38b1461047d578063ff53554e1461049d57600080fd5b8063a22cb465146103c1578063b88d4fde146103e1578063c87b56dd1461040157600080fd5b8063715018a61461031757806383b5daf71461032c5780638c0b9c541461034e5780638da5cb5b1461036e5780639012c4a81461038c57806395d89b41146103ac57600080fd5b80633ccfd60b116101235780633ccfd60b1461025c57806342842e0e146102645780635ec163db146102845780636352211e146102b6578063698d640c146102d657806370a08231146102e957600080fd5b806301ffc9a71461016b57806306fdde03146101a0578063081812fc146101c2578063095ea7b3146101fa5780630ce90ec21461021c57806323b872dd1461023c575b600080fd5b34801561017757600080fd5b5061018b610186366004611a87565b6104b0565b60405190151581526020015b60405180910390f35b3480156101ac57600080fd5b506101b5610502565b6040516101979190611afc565b3480156101ce57600080fd5b506101e26101dd366004611b0f565b610594565b6040516001600160a01b039091168152602001610197565b34801561020657600080fd5b5061021a610215366004611b44565b61062e565b005b34801561022857600080fd5b5061021a610237366004611b0f565b610743565b34801561024857600080fd5b5061021a610257366004611b6e565b6107ba565b61021a6107eb565b34801561027057600080fd5b5061021a61027f366004611b6e565b610865565b34801561029057600080fd5b506102a461029f366004611b0f565b610880565b60405161019796959493929190611baa565b3480156102c257600080fd5b506101e26102d1366004611b0f565b61095f565b61021a6102e4366004611c98565b6109d6565b3480156102f557600080fd5b50610309610304366004611ccd565b6109f1565b604051908152602001610197565b34801561032357600080fd5b5061021a610a78565b34801561033857600080fd5b50610341610aae565b6040516101979190611ce8565b34801561035a57600080fd5b50610341610369366004611ccd565b610be3565b34801561037a57600080fd5b506006546001600160a01b03166101e2565b34801561039857600080fd5b5061021a6103a7366004611b0f565b610de1565b3480156103b857600080fd5b506101b5610e10565b3480156103cd57600080fd5b5061021a6103dc366004611d94565b610e1f565b3480156103ed57600080fd5b5061021a6103fc366004611dd0565b610e2a565b34801561040d57600080fd5b506101b561041c366004611b0f565b610e62565b61021a61042f366004611e4c565b610f4a565b34801561044057600080fd5b5061018b61044f366004611e9c565b6001600160a01b03918216600090815260056020908152604080832093909416825291909152205460ff1690565b34801561048957600080fd5b5061021a610498366004611ccd565b611036565b61021a6104ab366004611ecf565b6110ce565b60006001600160e01b031982166380ac58cd60e01b14806104e157506001600160e01b03198216635b5e139f60e01b145b806104fc57506301ffc9a760e01b6001600160e01b03198316145b92915050565b60606000805461051190611ef2565b80601f016020809104026020016040519081016040528092919081815260200182805461053d90611ef2565b801561058a5780601f1061055f5761010080835404028352916020019161058a565b820191906000526020600020905b81548152906001019060200180831161056d57829003601f168201915b5050505050905090565b6000818152600260205260408120546001600160a01b03166106125760405162461bcd60e51b815260206004820152602c60248201527f4552433732313a20617070726f76656420717565727920666f72206e6f6e657860448201526b34b9ba32b73a103a37b5b2b760a11b60648201526084015b60405180910390fd5b506000908152600460205260409020546001600160a01b031690565b60006106398261095f565b9050806001600160a01b0316836001600160a01b0316036106a65760405162461bcd60e51b815260206004820152602160248201527f4552433732313a20617070726f76616c20746f2063757272656e74206f776e656044820152603960f91b6064820152608401610609565b336001600160a01b03821614806106c257506106c2813361044f565b6107345760405162461bcd60e51b815260206004820152603860248201527f4552433732313a20617070726f76652063616c6c6572206973206e6f74206f7760448201527f6e6572206e6f7220617070726f76656420666f7220616c6c00000000000000006064820152608401610609565b61073e83836110d9565b505050565b3361074d8261095f565b6001600160a01b03161461076057600080fd5b60006009828154811061077557610775611f2c565b6000918252602082206003600490920201908101805491935060ff9091169161079d83611f58565b91906101000a81548160ff021916908360ff160217905550505050565b6107c43382611147565b6107e05760405162461bcd60e51b815260040161060990611f77565b61073e83838361123e565b6006546001600160a01b031633146108155760405162461bcd60e51b815260040161060990611fc8565b60006108296006546001600160a01b031690565b6040519091506001600160a01b038216904780156108fc02916000818181858888f19350505050158015610861573d6000803e3d6000fd5b5050565b61073e83838360405180602001604052806000815250610e2a565b6009818154811061089057600080fd5b90600052602060002090600402016000915090508060000180546108b390611ef2565b80601f01602080910402602001604051908101604052809291908181526020018280546108df90611ef2565b801561092c5780601f106109015761010080835404028352916020019161092c565b820191906000526020600020905b81548152906001019060200180831161090f57829003601f168201915b505050600184015460028501546003909501549394909390925060ff808216925061010082048116916201000090041686565b6000818152600260205260408120546001600160a01b0316806104fc5760405162461bcd60e51b815260206004820152602960248201527f4552433732313a206f776e657220717565727920666f72206e6f6e657869737460448201526832b73a103a37b5b2b760b91b6064820152608401610609565b6008543410156109e557600080fd5b6109ee816113da565b50565b60006001600160a01b038216610a5c5760405162461bcd60e51b815260206004820152602a60248201527f4552433732313a2062616c616e636520717565727920666f7220746865207a65604482015269726f206164647265737360b01b6064820152608401610609565b506001600160a01b031660009081526003602052604090205490565b6006546001600160a01b03163314610aa25760405162461bcd60e51b815260040161060990611fc8565b610aac6000611538565b565b60606009805480602002602001604051908101604052809291908181526020016000905b82821015610bda57838290600052602060002090600402016040518060c0016040529081600082018054610b0590611ef2565b80601f0160208091040260200160405190810160405280929190818152602001828054610b3190611ef2565b8015610b7e5780601f10610b5357610100808354040283529160200191610b7e565b820191906000526020600020905b815481529060010190602001808311610b6157829003601f168201915b50505091835250506001828101546020808401919091526002840154604084015260039093015460ff80821660608501526101008204811660808501526201000090910416151560a09092019190915291835292019101610ad2565b50505050905090565b60606000610bf0836109f1565b67ffffffffffffffff811115610c0857610c08611bec565b604051908082528060200260200182016040528015610c6957816020015b6040805160c0810182526060808252600060208084018290529383018190529082018190526080820181905260a08201528252600019909201910181610c265790505b5090506000805b600954811015610dd857846001600160a01b0316610c8d8261095f565b6001600160a01b031603610dc65760098181548110610cae57610cae611f2c565b90600052602060002090600402016040518060c0016040529081600082018054610cd790611ef2565b80601f0160208091040260200160405190810160405280929190818152602001828054610d0390611ef2565b8015610d505780601f10610d2557610100808354040283529160200191610d50565b820191906000526020600020905b815481529060010190602001808311610d3357829003601f168201915b5050509183525050600182015460208201526002820154604082015260039091015460ff80821660608401526101008204811660808401526201000090910416151560a0909101528351849084908110610dac57610dac611f2c565b60200260200101819052508180610dc290611ffd565b9250505b80610dd081611ffd565b915050610c70565b50909392505050565b6006546001600160a01b03163314610e0b5760405162461bcd60e51b815260040161060990611fc8565b600855565b60606001805461051190611ef2565b61086133838361158a565b610e343383611147565b610e505760405162461bcd60e51b815260040161060990611f77565b610e5c84848484611658565b50505050565b6000818152600260205260409020546060906001600160a01b0316610ee15760405162461bcd60e51b815260206004820152602f60248201527f4552433732314d657461646174613a2055524920717565727920666f72206e6f60448201526e3732bc34b9ba32b73a103a37b5b2b760891b6064820152608401610609565b6000610ef860408051602081019091526000815290565b90506000815111610f185760405180602001604052806000815250610f43565b80610f228461168b565b604051602001610f33929190612016565b6040516020818303038152906040525b9392505050565b33610f548461095f565b6001600160a01b031614610f6757600080fd5b33610f718361095f565b6001600160a01b031614610f8457600080fd5b600060098481548110610f9957610f99611f2c565b90600052602060002090600402019050600060098481548110610fbe57610fbe611f2c565b906000526020600020906004020190508160030160029054906101000a900460ff1615610fea57600080fd5b600381015462010000900460ff161561100257600080fd5b61100b836113da565b600391820180546201000062ff00001991821681179092559190920180549091169091179055505050565b6006546001600160a01b031633146110605760405162461bcd60e51b815260040161060990611fc8565b6001600160a01b0381166110c55760405162461bcd60e51b815260206004820152602660248201527f4f776e61626c653a206e6577206f776e657220697320746865207a65726f206160448201526564647265737360d01b6064820152608401610609565b6109ee81611538565b610861338284610865565b600081815260046020526040902080546001600160a01b0319166001600160a01b038416908117909155819061110e8261095f565b6001600160a01b03167f8c5be1e5ebec7d5bd14f71427d1e84f3dd0314c0f7b2291e5b200ac8c7c3b92560405160405180910390a45050565b6000818152600260205260408120546001600160a01b03166111c05760405162461bcd60e51b815260206004820152602c60248201527f4552433732313a206f70657261746f7220717565727920666f72206e6f6e657860448201526b34b9ba32b73a103a37b5b2b760a11b6064820152608401610609565b60006111cb8361095f565b9050806001600160a01b0316846001600160a01b0316148061121257506001600160a01b0380821660009081526005602090815260408083209388168352929052205460ff165b806112365750836001600160a01b031661122b84610594565b6001600160a01b0316145b949350505050565b826001600160a01b03166112518261095f565b6001600160a01b0316146112b55760405162461bcd60e51b815260206004820152602560248201527f4552433732313a207472616e736665722066726f6d20696e636f72726563742060448201526437bbb732b960d91b6064820152608401610609565b6001600160a01b0382166113175760405162461bcd60e51b8152602060048201526024808201527f4552433732313a207472616e7366657220746f20746865207a65726f206164646044820152637265737360e01b6064820152608401610609565b6113226000826110d9565b6001600160a01b038316600090815260036020526040812080546001929061134b908490612045565b90915550506001600160a01b038216600090815260036020526040812080546001929061137990849061205c565b909155505060008181526002602052604080822080546001600160a01b0319166001600160a01b0386811691821790925591518493918716917fddf252ad1be2c89b69c2b068fc378daa952ba7f163c4a11628f55a4df523b3ef91a4505050565b60006113e6606461178c565b905060006113fa662386f26fc1000061178c565b6040805160c081018252858152600754602082015290810182905260016060820181905260ff85166080830152600060a0830181905260098054928301815590528151929350909182916004027f6e1540171b6c0c960b71a7020d9f60077f6af931a8bbf590da0223dacf75c7af0190819061147690826120c2565b506020820151600182015560408201516002820155606082015160039091018054608084015160a0909401511515620100000262ff00001960ff9586166101000261ffff19909316959094169490941717919091169190911790556007546114df9033906117e1565b600754604080519182526020820184905233917f24d2d558f98bdd9d21339e119fc0b03e213c7d05affd838ac2ee136d90e3bbeb910160405180910390a26007805490600061152d83611ffd565b919050555050505050565b600680546001600160a01b038381166001600160a01b0319831681179093556040519116919082907f8be0079c531659141344cd1fd0a4f28419497f9722a3daafe3b4186f6b6457e090600090a35050565b816001600160a01b0316836001600160a01b0316036115eb5760405162461bcd60e51b815260206004820152601960248201527f4552433732313a20617070726f766520746f2063616c6c6572000000000000006044820152606401610609565b6001600160a01b03838116600081815260056020908152604080832094871680845294825291829020805460ff191686151590811790915591519182527f17307eab39ab6107e8899845ad3d59bd9653f200f220920489ca2b5937696c31910160405180910390a3505050565b61166384848461123e565b61166f848484846117fb565b610e5c5760405162461bcd60e51b815260040161060990612182565b6060816000036116b25750506040805180820190915260018152600360fc1b602082015290565b8160005b81156116dc57806116c681611ffd565b91506116d59050600a836121ea565b91506116b6565b60008167ffffffffffffffff8111156116f7576116f7611bec565b6040519080825280601f01601f191660200182016040528015611721576020820181803683370190505b5090505b841561123657611736600183612045565b9150611743600a866121fe565b61174e90603061205c565b60f81b81838151811061176357611763611f2c565b60200101906001600160f81b031916908160001a905350611785600a866121ea565b9450611725565b60008042336040516020016117bd92919091825260601b6bffffffffffffffffffffffff1916602082015260340190565b60408051601f1981840301815291905280516020909101209050610f4383826121fe565b6108618282604051806020016040528060008152506118fc565b60006001600160a01b0384163b156118f157604051630a85bd0160e11b81526001600160a01b0385169063150b7a029061183f903390899088908890600401612212565b6020604051808303816000875af192505050801561187a575060408051601f3d908101601f191682019092526118779181019061224f565b60015b6118d7573d8080156118a8576040519150601f19603f3d011682016040523d82523d6000602084013e6118ad565b606091505b5080516000036118cf5760405162461bcd60e51b815260040161060990612182565b805181602001fd5b6001600160e01b031916630a85bd0160e11b149050611236565b506001949350505050565b611906838361192f565b61191360008484846117fb565b61073e5760405162461bcd60e51b815260040161060990612182565b6001600160a01b0382166119855760405162461bcd60e51b815260206004820181905260248201527f4552433732313a206d696e7420746f20746865207a65726f20616464726573736044820152606401610609565b6000818152600260205260409020546001600160a01b0316156119ea5760405162461bcd60e51b815260206004820152601c60248201527f4552433732313a20746f6b656e20616c7265616479206d696e746564000000006044820152606401610609565b6001600160a01b0382166000908152600360205260408120805460019290611a1390849061205c565b909155505060008181526002602052604080822080546001600160a01b0319166001600160a01b03861690811790915590518392907fddf252ad1be2c89b69c2b068fc378daa952ba7f163c4a11628f55a4df523b3ef908290a45050565b6001600160e01b0319811681146109ee57600080fd5b600060208284031215611a9957600080fd5b8135610f4381611a71565b60005b83811015611abf578181015183820152602001611aa7565b83811115610e5c5750506000910152565b60008151808452611ae8816020860160208601611aa4565b601f01601f19169290920160200192915050565b602081526000610f436020830184611ad0565b600060208284031215611b2157600080fd5b5035919050565b80356001600160a01b0381168114611b3f57600080fd5b919050565b60008060408385031215611b5757600080fd5b611b6083611b28565b946020939093013593505050565b600080600060608486031215611b8357600080fd5b611b8c84611b28565b9250611b9a60208501611b28565b9150604084013590509250925092565b60c081526000611bbd60c0830189611ad0565b602083019790975250604081019490945260ff928316606085015291166080830152151560a090910152919050565b634e487b7160e01b600052604160045260246000fd5b600067ffffffffffffffff80841115611c1d57611c1d611bec565b604051601f8501601f19908116603f01168101908282118183101715611c4557611c45611bec565b81604052809350858152868686011115611c5e57600080fd5b858560208301376000602087830101525050509392505050565b600082601f830112611c8957600080fd5b610f4383833560208501611c02565b600060208284031215611caa57600080fd5b813567ffffffffffffffff811115611cc157600080fd5b61123684828501611c78565b600060208284031215611cdf57600080fd5b610f4382611b28565b60006020808301818452808551808352604092508286019150828160051b87010184880160005b83811015611d8657603f19898403018552815160c08151818652611d3582870182611ad0565b838b0151878c0152898401518a88015260608085015160ff908116918901919091526080808601519091169088015260a0938401511515939096019290925250509386019390860190600101611d0f565b509098975050505050505050565b60008060408385031215611da757600080fd5b611db083611b28565b915060208301358015158114611dc557600080fd5b809150509250929050565b60008060008060808587031215611de657600080fd5b611def85611b28565b9350611dfd60208601611b28565b925060408501359150606085013567ffffffffffffffff811115611e2057600080fd5b8501601f81018713611e3157600080fd5b611e4087823560208401611c02565b91505092959194509250565b600080600060608486031215611e6157600080fd5b8335925060208401359150604084013567ffffffffffffffff811115611e8657600080fd5b611e9286828701611c78565b9150509250925092565b60008060408385031215611eaf57600080fd5b611eb883611b28565b9150611ec660208401611b28565b90509250929050565b60008060408385031215611ee257600080fd5b82359150611ec660208401611b28565b600181811c90821680611f0657607f821691505b602082108103611f2657634e487b7160e01b600052602260045260246000fd5b50919050565b634e487b7160e01b600052603260045260246000fd5b634e487b7160e01b600052601160045260246000fd5b600060ff821660ff8103611f6e57611f6e611f42565b60010192915050565b60208082526031908201527f4552433732313a207472616e736665722063616c6c6572206973206e6f74206f6040820152701ddb995c881b9bdc88185c1c1c9bdd9959607a1b606082015260800190565b6020808252818101527f4f776e61626c653a2063616c6c6572206973206e6f7420746865206f776e6572604082015260600190565b60006001820161200f5761200f611f42565b5060010190565b60008351612028818460208801611aa4565b83519083019061203c818360208801611aa4565b01949350505050565b60008282101561205757612057611f42565b500390565b6000821982111561206f5761206f611f42565b500190565b601f82111561073e57600081815260208120601f850160051c8101602086101561209b5750805b601f850160051c820191505b818110156120ba578281556001016120a7565b505050505050565b815167ffffffffffffffff8111156120dc576120dc611bec565b6120f0816120ea8454611ef2565b84612074565b602080601f831160018114612125576000841561210d5750858301515b600019600386901b1c1916600185901b1785556120ba565b600085815260208120601f198616915b8281101561215457888601518255948401946001909101908401612135565b50858210156121725787850151600019600388901b60f8161c191681555b5050505050600190811b01905550565b60208082526032908201527f4552433732313a207472616e7366657220746f206e6f6e20455243373231526560408201527131b2b4bb32b91034b6b83632b6b2b73a32b960711b606082015260800190565b634e487b7160e01b600052601260045260246000fd5b6000826121f9576121f96121d4565b500490565b60008261220d5761220d6121d4565b500690565b6001600160a01b038581168252841660208201526040810183905260806060820181905260009061224590830184611ad0565b9695505050505050565b60006020828403121561226157600080fd5b8151610f4381611a7156fea2646970667358221220c7fc902500ea054e13cb2c1a983b6fb2af1e0600daff70d3104d1c7648537d5c64736f6c634300080f0033",
  "immutableReferences": {},
  "source": "// SPDX-License-Identifier: MIT\r\npragma solidity ^0.8.0;\r\n\r\nimport \"@openzeppelin/contracts/token/ERC721/ERC721.sol\";\r\nimport \"@openzeppelin/contracts/access/Ownable.sol\";\r\n\r\ncontract LipToken is ERC721, Ownable {\r\n\r\n    constructor(string memory _name, string memory _symbol)\r\n        ERC721(_name, _symbol)\r\n    {}\r\n\r\n    uint256 COUNTER;\r\n\r\n    uint256 fee = 0.01 ether;\r\n\r\n    struct Lip {\r\n      string name;\r\n      uint256 id;\r\n      uint256 dna; // generate images like CryptoKitties\r\n      uint8 level;\r\n      uint8 rarity;\r\n      bool isKissed;\r\n    }\r\n\r\n    Lip[] public lips;\r\n\r\n    event NewLip(address indexed owner, uint256 id, uint256 dna);\r\n\r\n    function _createLip(string memory _name) internal {\r\n      uint8 randRarity = uint8(_createRandomNum(100));\r\n      uint256 randDna = _createRandomNum(10**16);\r\n      Lip memory newLip = Lip(_name, COUNTER, randDna, 1, randRarity, false);\r\n      lips.push(newLip);\r\n      _safeMint(msg.sender, COUNTER);\r\n      emit NewLip(msg.sender, COUNTER, randDna);\r\n      COUNTER++;\r\n    }\r\n\r\n    function _createRandomNum(uint256 _mod) internal view returns (uint256) {\r\n      uint256 randomNum = uint256(\r\n        keccak256(abi.encodePacked(block.timestamp, msg.sender))\r\n      );\r\n      return randomNum % _mod;\r\n    }\r\n\r\n    function updateFee(uint256 _fee) external onlyOwner {\r\n      fee = _fee;\r\n    }\r\n\r\n    function withdraw() external payable onlyOwner {\r\n      address payable _owner = payable(owner());\r\n      _owner.transfer(address(this).balance);\r\n    }\r\n\r\n    function createRandomLip(string memory _name) public payable {\r\n      require(msg.value >= fee);\r\n      _createLip(_name);\r\n    }\r\n    \r\n    function getLips() public view returns (Lip[] memory) {\r\n      return lips;\r\n    }\r\n\r\n    function getOwnerLips(address _owner) public view returns (Lip[] memory) {\r\n      Lip[] memory result = new Lip[](balanceOf(_owner));\r\n      uint256 counter = 0;\r\n      for (uint256 i = 0; i < lips.length; i++) {\r\n        if (ownerOf(i) == _owner) {\r\n          result[counter] = lips[i];\r\n          counter++;\r\n        }\r\n      }\r\n      return result;\r\n    }\r\n\r\n    function levelUp(uint256 _lipId) public {\r\n      require(ownerOf(_lipId) == msg.sender);\r\n      Lip storage lip = lips[_lipId];\r\n      lip.level++;\r\n    }\r\n\r\n    function kissTwoLips(uint256 _firstLipId, uint256 _secondLipId, string memory _name) public payable {\r\n      require(ownerOf(_firstLipId) == msg.sender);\r\n      require(ownerOf(_secondLipId) == msg.sender);\r\n      Lip storage firstLip = lips[_firstLipId];\r\n      Lip storage secondLip = lips[_secondLipId];\r\n      require(!firstLip.isKissed);\r\n      require(!secondLip.isKissed);\r\n      _createLip(_name);\r\n      firstLip.isKissed = true;\r\n      secondLip.isKissed = true;\r\n    }\r\n\r\n    function simpleTransfer(uint256 _lipId, address _receiver) public payable {\r\n      safeTransferFrom(msg.sender, _receiver, _lipId);\r\n    }\r\n}",
  "sourcePath": "C:\\Users\\anhkh\\Desktop\\Dev\\cnm-nft-game\\contracts\\LipToken.sol",
  "compiler": {
    "name": "solc",
    "version": "0.8.15+commit.e14f2714.Emscripten.clang"
  },
  "schemaVersion": "3.4.7",
  "updatedAt": "2022-07-07T15:36:31.834Z",
  "networkType": "ethereum",
  "devdoc": {
    "kind": "dev",
    "methods": {
      "approve(address,uint256)": {
        "details": "See {IERC721-approve}."
      },
      "balanceOf(address)": {
        "details": "See {IERC721-balanceOf}."
      },
      "getApproved(uint256)": {
        "details": "See {IERC721-getApproved}."
      },
      "isApprovedForAll(address,address)": {
        "details": "See {IERC721-isApprovedForAll}."
      },
      "name()": {
        "details": "See {IERC721Metadata-name}."
      },
      "owner()": {
        "details": "Returns the address of the current owner."
      },
      "ownerOf(uint256)": {
        "details": "See {IERC721-ownerOf}."
      },
      "renounceOwnership()": {
        "details": "Leaves the contract without owner. It will not be possible to call `onlyOwner` functions anymore. Can only be called by the current owner. NOTE: Renouncing ownership will leave the contract without an owner, thereby removing any functionality that is only available to the owner."
      },
      "safeTransferFrom(address,address,uint256)": {
        "details": "See {IERC721-safeTransferFrom}."
      },
      "safeTransferFrom(address,address,uint256,bytes)": {
        "details": "See {IERC721-safeTransferFrom}."
      },
      "setApprovalForAll(address,bool)": {
        "details": "See {IERC721-setApprovalForAll}."
      },
      "supportsInterface(bytes4)": {
        "details": "See {IERC165-supportsInterface}."
      },
      "symbol()": {
        "details": "See {IERC721Metadata-symbol}."
      },
      "tokenURI(uint256)": {
        "details": "See {IERC721Metadata-tokenURI}."
      },
      "transferFrom(address,address,uint256)": {
        "details": "See {IERC721-transferFrom}."
      },
      "transferOwnership(address)": {
        "details": "Transfers ownership of the contract to a new account (`newOwner`). Can only be called by the current owner."
      }
    },
    "version": 1
  },
  "userdoc": {
    "kind": "user",
    "methods": {},
    "version": 1
  }
}